:100000000C94DD010C940E020C940E020C940E0262
:100010000C940E020C940E020C940E020C940E0220
:100020000C940E020C940E020C940E020C940E0210
:100030000C940E020C940E020C940E020C940E0200
:100040000C940E020C940E020C940E020C940E02F0
:100050000C940E020C940E020C940E020C944403A9
:100060000C940E020C94B8030C948E030C940E02A4
:100070000C940E020C940E020C940E020C940E02C0
:100080000C940E020C940E020C940E020C940E02B0
:100090000C940E020C940E020C940E020C940E02A0
:1000A0000C940E020C940E020C940E020C940E0290
:1000B0000C940E020C940E020C940E020C940E0280
:1000C0000C940E020C940E020C940E020C940E0270
:1000D0000C940E020C940E020C940E020C940E0260
:1000E0000C940E029A109D108C1090109410D41045
:1000F000A110A510AB10AF10B310B910BD10C110F6
:10010000D410C710CB10CF100C9490100C94AB10DF
:100110000C94B9100C943B020C94A1100C940205A1
:100120000C94A5100C94CB100C94BF120C94840862
:100130000C9455120C949A100C94960B0C94C710B6
:100140000C9494020C94DB020C94C1100C94AF102C
:100150000C9494100C945D020C94FE090C944F02C4
:100160000C94E71A0C94C9040C948C100C94C504DC
:100170000C94BD100C94A70B0C9410020C94CF108F
:100180000C94AF040C949D100C94B3100C948E043A
:100190000C94D4100C943603005EBCE2613FDD8306
:1001A000C29C7E20A3FD1F419DC3217FFCA2401E57
:1001B0005F01E3BD3E6082DC237D9FC1421CFEA047
:1001C000E1BF5D0380DE3C62BEE0025CDF81633D37
:1001D0007C22C09E1D43A1FF4618FAA427799BC527
:1001E00084DA3866E5BB5907DB856739BAE4065817
:1001F0001947A5FB7826C49A653BD987045AB8E607
:10020000A7F91B45C6987A24F8A6441A99C7257BF6
:100210003A6486D85B05E7B98CD2306EEDB3510FE6
:100220004E10F2AC2F7193CD114FADF3702ECC92D6
:10023000D38D6F31B2EC0E50AFF1134DCE90722CC6
:100240006D33D18F0C52B0EE326C8ED0530DEFB1B6
:10025000F0AE4C1291CF2D73CA947628ABF51749A6
:100260000856B4EA6937D58B5709EBB536688AD496
:1002700095CB2977F4AA4816E9B7550B88D6346A86
:100280002B7597C94A14F6A8742AC896154BA9F776
:10029000B6E80A54D7896B350000210024002700F6
:1002A0002A002D0030003300010100000401070185
:1002B0000A0100002200250028002B002E0031003A
:1002C000340002010000050108010B0100000A0BC7
:1002D00002090C0D0E0807030401000000000000D5
:1002E000000000000000000000000000000000000E
:1002F00000000000000000001211100000000000CB
:1003000000000000000000000000000000000000ED
:100310000000000020002300260029002C002F00F0
:100320003200000100000301060109010505050571
:10033000070508080808020202020A0A080804045D
:10034000040401010101010101010303030303038B
:100350000303040707070C0C0C0C0C0C0C0C02021A
:10036000020206060606060606060B0B0B0B0B0B17
:100370000B0B0102102020080810204010204080A4
:100380000201020108040201010204081020408059
:1003900080402010080402018004020180402010E7
:1003A0000804020108040201010204081020408030
:1003B0000102040810204080E71A11241FBECFEF6D
:1003C000D1E2DEBFCDBF00E00CBF12E0A0E0B2E0A2
:1003D000E8EBFCE300E00BBF02C007900D92A235F2
:1003E000B107D9F727E0A2E5B2E001C01D92A03421
:1003F000B207E1F711E0CDEDD1E000E006C02197B2
:100400000109802FFE010E941F1ECC3DD10780E014
:100410000807A9F70E9427170C945A1E0C94000095
:10042000CF92DF92EF92FF920F931F93CF93DF93C0
:100430006C017A018B01C0E0D0E0CE15DF0589F0B8
:10044000D8016D918D01D601ED91FC910190F08163
:10045000E02DC6011995892B11F47E0102C0219669
:10046000ECCFC701DF91CF911F910F91FF90EF90DB
:10047000DF90CF900895FC01918D828D981761F0E7
:10048000828DDF01A80FB11D5D968C91928D9F5FCB
:100490009F73928F90E008958FEF9FEF0895FC0176
:1004A000918D828D981731F0828DE80FF11D858D29
:1004B00090E008958FEF9FEF0895FC01918D228DBC
:1004C000892F90E0805C9F4F821B91098F73992741
:1004D000089580EB94E00E945D0221E0892B09F4ED
:1004E00020E0822F0895FC01848DDF01A80FB11D4B
:1004F000A35ABF4F2C91848D90E001968F7399275A
:10050000848FA689B7892C93A089B1898C91806446
:100510008C93938D848D981306C00288F389E02D07
:1005200080818F7D80830895EF92FF920F931F93B8
:10053000CF93DF93EC0181E0888F9B8D8C8D981396
:1005400005C0E889F989808185FD24C0F62E0B8DD0
:1005500010E00F5F1F4F0F731127E02E8C8DE812F4
:100560000CC00FB607FCFACFE889F989808185FFB6
:10057000F5CFCE010E947302F1CF8B8DFE01E80F03
:10058000F11DE35AFF4FF0820B8FEA89FB898081CE
:10059000806207C0EE89FF896083E889F9898081DC
:1005A0008064808381E090E0DF91CF911F910F9173
:1005B000FF90EF900895CF93DF93EC01888D88230F
:1005C000C9F0EA89FB89808185FD05C0A889B989C0
:1005D0008C9186FD0FC00FB607FCF5CF808185FF9B
:1005E000F2CFA889B9898C9185FFEDCFCE010E9409
:1005F0007302E7CFDF91CF91089580E090E0892BDF
:1006000021F00E946902811125C080E090E0892BD1
:1006100041F080E090E0892B21F00E9400008111E0
:100620001CC080E090E0892B41F080E090E0892BB5
:1006300021F00E940000811113C080E090E0892B1E
:10064000A1F080E090E0892B81F00E9400008111F0
:100650000AC008950E940000D8CF0E940000E1CF98
:100660000E940000EACF0C94000008950E94551EDD
:100670002FB7F8946091590270915A0280915B02F1
:1006800090915C022FBF08951F920F920FB60F92A8
:1006900011242F933F938F939F93AF93BF93809198
:1006A000590290915A02A0915B02B0915C02309184
:1006B000580223E0230F2D3720F40196A11DB11D10
:1006C00005C026E8230F0296A11DB11D20935802F4
:1006D0008093590290935A02A0935B02B0935C02FC
:1006E00080915F0290916002A0916102B0916202DC
:1006F0000196A11DB11D80935F0290936002A093AB
:100700006102B0936202BF91AF919F918F913F912F
:100710002F910F900FBE0F901F9018951F920F9260
:100720000FB60F9211240BB60F922F933F934F9356
:100730005F936F937F938F939F93AF93BF93EF9349
:10074000FF9380EB94E00E947302FF91EF91BF91C1
:10075000AF919F918F917F916F915F914F913F9159
:100760002F910F900BBE0F900FBE0F901F901895FA
:100770001F920F920FB60F9211240BB60F922F9368
:100780008F939F93EF93FF93E091C004F091C10486
:100790008081E091C604F091C70482FD12C090816F
:1007A0008091C9048F5F8F732091CA04821751F022
:1007B000E091C904F0E0E055FB4F958F8093C904A8
:1007C00001C08081FF91EF919F918F912F910F90A8
:1007D0000BBE0F900FBE0F901F9018954F925F9217
:1007E0006F927F928F929F92AF92BF92CF92DF9241
:1007F000EF92FF920F931F93CF93DF93EC016A0167
:100800007B0128013901423051056105710510F461
:1008100080E073C089859A85AB85BC850196A11D52
:10082000B11D84179507A607B70790F38B889C889E
:10083000AD88BE888F89803129F4BB27AF2D9E2DCE
:100840008D2D09C0DB01CA0147E0B695A7959795A4
:1008500087954A95D1F7880E991EAA1EBB1E8091D6
:10086000000290910102A0910202B0910302881649
:100870009906AA06BB0679F48F898031A1F4DD249C
:10088000EE24FF24C601880F991FFC01ED59FD4F8E
:100890005182408219C040E0C501B4010E94210785
:1008A0008111EACFB5CFE894C7F8DD24EE24FF2408
:1008B000C601880F991F880F991FFC01ED59FD4F44
:1008C0004082518262827382809152028160809361
:1008D00052028A89823080F08D819E81AF81B885F5
:1008E000880E991EAA1EBB1E80925302909254023B
:1008F000A0925502B092560281E0DF91CF911F91F4
:100900000F91FF90EF90DF90CF90BF90AF909F90AE
:100910008F907F906F905F904F900895DC01599673
:10092000ED91FC915A973097B9F083899489A58904
:10093000B6894285538564857585841B950BA60B06
:10094000B70B811520E89207A105B10538F08FEFAC
:100950009FE7A0E0B0E0089580E090E00895CF9395
:10096000DF931F92CDB7DEB76983DC01ED91FC9177
:100970000280F381E02D41E050E0BE016F5F7F4FC8
:1009800019950F90DF91CF910895FC018681845FC6
:100990000895FC01611102C082850895613011F44F
:1009A00081850895623011F480850895633011F4D3
:1009B00087810895643011F486850895653011F4B7
:1009C00085850895663011F484850895673011F4A3
:1009D00083850895683011F480890895693011F491
:1009E000878508956A3011F4818908956B3011F478
:1009F000828908950480F581E02DE60FF11D3C9772
:100A000080810895CF93DF931F92CDB7DEB7FC01AD
:100A1000818D928D009751F0BE016F5F7F4F0E94D4
:100A2000790F019719F4898190E002C08FEF9FEF51
:100A30000F90DF91CF9108958FB7F89480915E0267
:100A40008FBF089561E0FC0184810E946B1080914A
:100A50005D02811110925D0208958EBD00000DB4FB
:100A600007FEFDCF8EB508958FEF0C942D050F93E3
:100A70001F93CF93DF93EB010E9438038B010E94F9
:100A800034058F3F49F00E943803601B710B6C17CF
:100A90007D07A8F380E001C081E0DF91CF911F9135
:100AA0000F910895CF93DF93EC018E81882389F015
:100AB0008F8198859C012F5F3F4F38872F8382302D
:100AC000924018F40E943405F3CFCE010E94220513
:100AD0001E82DF91CF9108958CBD9DBD0895CF9367
:100AE000DF93EC0180915D02811109C081E0809368
:100AF0005D0280916504909166040E946C0560E03F
:100B00008C81DF91CF910C946B10CF92DF92FF928A
:100B10000F931F93CF93DF9300D01F92CDB7DEB713
:100B20006C01F62E29833A834B835C830E94520525
:100B3000C6010E946F056CE271E0C6010E94370594
:100B40008F2D80640E942D0508E110E05C814B81AF
:100B50003A812981DA01C901002E04C0B695A79512
:100B6000979587950A94D2F729833A834B835C83C0
:100B70000E942D050850110929813A814B815C8121
:100B8000083F8FEF180731F7FF2029F0E8E0FE1249
:100B900004C087E803C085E901C08FEF0E942D05DE
:100BA00010E00E943405F601828787FF04C01F3FD2
:100BB00011F01F5FF6CF0F900F900F900F90DF9105
:100BC000CF911F910F91FF90DF90CF900895AF923A
:100BD000BF92CF92DF92EF92FF920F931F93CF932A
:100BE000DF93EC016901C801820F931F81309240AD
:100BF00008F070C08E81882371F088819981AA8164
:100C0000BB81481759076A077B0729F48F819885AC
:100C1000C816D906B0F5488359836A837B838B85D0
:100C2000833039F089E0440F551F661F771F8A957E
:100C3000D1F79A01AB0161E1CE010E9485058823BD
:100C400019F083E08D8346C00E9438035B010E9447
:100C500034058A878F3F49F40E9438036A197B095B
:100C60006D327140A0F38FE003C08E3F31F08DE014
:100C70008D83CE010E9422052DC018861F8281E03F
:100C80008E838F8198858C159D0540F40E943405D4
:100C90008F819885019698878F83F3CF6701E00E47
:100CA000F11ECE14DF0431F00E943405F601819369
:100CB0006F01F7CF8F819885080F191F18870F8351
:100CC0008985882319F00115124048F0CE010E9451
:100CD000520505C0CE010E94220580E001C081E0DE
:100CE000DF91CF911F910F91FF90EF90DF90CF9008
:100CF000BF90AF900895EF92FF920F931F93CF9301
:100D0000DF93EC017901411551056105710511F47D
:100D100082E13CC08B85833039F089E0440F551F58
:100D2000661F771F8A95D1F79A01AB0168E1CE0162
:100D30000E948505882311F084E028C08EEF0E9470
:100D40002D0587018EEFF81AF80181918F010E941D
:100D50002D050E151F05C1F78FEF0E942D058FEF92
:100D60000E942D050E9434058A878F71853031F0ED
:100D700081E18D83CE010E94220509C068E572E001
:100D8000CE010E943705811107C085E18D83CE0118
:100D90000E94220580E013C020E030E0A9016DE050
:100DA000CE010E948505811104C00E94340588236C
:100DB00011F084E1EBCFCE010E94220581E0DF91AA
:100DC000CF911F910F91FF90EF9008958091520263
:100DD0008823A9F140910002509101026091020222
:100DE0007091030223E632E08091630490916404E1
:100DF0000E947B06811102C080E008954091530259
:100E0000509154026091550270915602411551055E
:100E10006105710591F023E632E0809163049091C1
:100E200064040E947B06882339F3109253021092C7
:100E3000540210925502109256021092520281E012
:100E400008958F929F92AF92BF92EF92FF920F936D
:100E50001F93CF934B015C01C42F809100029091AE
:100E60000102A0910202B091030288159905AA051A
:100E7000BB0501F10E94E606811102C080E020C09E
:100E800083E6E82E82E0F82E00E012E020E030E079
:100E9000B501A40180916304909164040E94E70568
:100EA000882361F38092000290920102A0920202D4
:100EB000B092030280915202C82BC093520281E08B
:100EC000CF911F910F91FF90EF90BF90AF909F90A7
:100ED0008F9008958F929F92AF92BF92CF92DF92A0
:100EE000EF92FF920F931F93CF93DF93FC018185C5
:100EF0009285A385B4850196A11DB11D8417950720
:100F0000A607B70710F480E05CC083899489A5899F
:100F1000B689C789C03129F4852E962EA72EBB2409
:100F200009C04A015B01C7E0B694A79497948794DF
:100F3000CA95D1F7E9016A017B018F01BC01CD019E
:100F4000680D791D8A1D9B1D809000029090010202
:100F5000A0900202B0900302681579058A059B05EE
:100F600099F4F80187898031A9F4B701A6015527C2
:100F700066277727440F551FFA01ED59FD4F8081F1
:100F80009181A0E0B0E018C040E00E9421078111EB
:100F9000E8CFB9CFB701A6014F7755276627772746
:100FA000440F551F440F551FFA01ED59FD4F808125
:100FB0009181A281B381BF7088839983AA83BB8307
:100FC00081E0DF91CF911F910F91FF90EF90DF9023
:100FD000CF90BF90AF909F908F9008958F929F92E7
:100FE000AF92BF92CF92DF92EF92FF920F931F9337
:100FF000CF93DF93EC018D81811102C080E077C037
:101000000B891C892D893E89041715072607370788
:10101000A8F36A017B01823029F4CA86DB86EC865C
:10102000FD860DC0C114D104E104F10451F41E8207
:101030001F82188619861A861B861C861D8681E0EB
:1010400056C08A849B84AC84BD84EB8DFC8D258541
:1010500030E0275F3F4FB501A401415051096109BC
:101060007109022E04C076956795579547950A94A5
:10107000D2F7D701C6010197A109B10904C0B695FD
:10108000A795979587952A95D2F784179507A60770
:10109000B70720F089288A288B2849F44F89588D72
:1010A000698D7A8D4E835F836887798704C0841B3E
:1010B000950BA60BB70B4C015D018E010A5F1F4F0C
:1010C00081149104A104B10409F4A7CF4E815F817A
:1010D0006885798598018B8D9C8D0E946A0791E0C7
:1010E000891A9108A108B1088111EACF87CFDF9151
:1010F000CF911F910F91FF90EF90DF90CF90BF9015
:10110000AF909F908F900895EF92FF920F931F934F
:10111000CF93DF931F92CDB7DEB7FC01818D928D07
:10112000009701F17F01BE016F5F7F4F0E94790F31
:10113000019719F4098110E002C00FEF1FEF0F3F74
:101140008FEF180789F0F701818D928DFC014285A0
:1011500053856485758541505109610971090E9463
:10116000EE0702C000E010E0C8010F90DF91CF91C0
:101170001F910F91FF90EF9008953F924F925F92D1
:101180006F927F928F929F92AF92BF92CF92DF9297
:10119000EF92FF920F931F93CF93DF93CDB7DEB7FC
:1011A0002C970FB6F894DEBF0FBECDBF5C01DC01FB
:1011B0005B968D909C905C971696CD90DD90ED900F
:1011C000FC901997C114D104E104F10439F0BFEF88
:1011D000CB1ADB0AEB0AFB0A312C07C0F401C080F2
:1011E000D180E280F38033243394F40181859285A9
:1011F000A385B4859C01AD012F5F3F4F4F4F5F4FDB
:1012000029873A874B875C87260137011D821E821A
:101210001F821886F40181859285A385B4852D816E
:101220003E814F815885281739074A075B0708F028
:1012300063C089859A85AB85BC858C159D05AE05F7
:10124000BF0550F482E0C82ED12CE12CF12C92E0A5
:10125000492E512C612C712C9E012F5F3F4FB701FD
:10126000A601C4010E946A07882309F445C0898148
:101270009A81AB81BC81892B8A2B8B2B41F0260173
:1012800037019FEF491A590A690A790A05C0C4143F
:10129000D504E604F70491F02D813E814F815885F5
:1012A0002F5F3F4F4F4F5F4F2D833E834F835887B4
:1012B0003FEFC31AD30AE30AF30AACCF0FEF1FEFD5
:1012C0002FEF3FE0B301A201C4010E94EE03882387
:1012D00099F0D50116964D915D916D917C9119977C
:1012E000411551056105710549F093018201C40161
:1012F0000E94EE03811102C080E02AC0D50116963B
:101300004D925D926D927C921997332051F0D301EA
:10131000C2010196A11DB11DF40180839183A283B6
:10132000B383F5018789908DA18DB28D892B8A2B8E
:101330008B2B69F4D50157964D925D926D927C92FC
:101340005A9714968C911497806814968C9381E028
:101350002C960FB6F894DEBF0FBECDBFDF91CF91B4
:101360001F910F91FF90EF90DF90CF90BF90AF90C3
:101370009F908F907F906F905F904F903F900895D7
:10138000CF93DF93EC018D818823A1F18C8187FFBE
:101390002DC06E857F858889998941E00E9421074B
:1013A000882341F1EA8980E2E89FF0011124DF01FE
:1013B000AD59BD4F1097F1F08D81823050F44B89BB
:1013C0005C896D897E895C964D935D936D937C936A
:1013D0005F978F89988DA98DBA8DED59FD4F938FA9
:1013E000828FB58BA48B8C818F778C83DF91CF918B
:1013F0000C94E60680E0DF91CF910895FC01818D89
:10140000928D009711F00C94C00908952F923F928D
:101410004F925F926F927F928F929F92AF92BF9204
:10142000CF92DF92EF92FF920F931F93CF93DF93B0
:1014300000D01F92CDB7DEB78C015B011A01DC0131
:1014400015968C9115978130C9F414968C9181FF73
:1014500015C082FF1BC0F8014389548965897689CC
:1014600082859385A485B58584179507A607B70758
:1014700069F0C8010E94EE07811108C081E090E088
:10148000F8019383828380E090E039C1610183C0D9
:10149000D8015B968D919C915C97FC012481215031
:1014A0002A013B0139E076946794579447943A9522
:1014B000D1F7722E74207A01F1E0FF22772009F42F
:1014C00076C080E092E08E199F0946018C159D053B
:1014D00008F44C01D8015B962D913C915C971696CF
:1014E0008D919D910D90BC91A02D0297A109B109FC
:1014F000F901058404C0880F991FAA1FBB1F0A9415
:10150000D2F74685578560897189840F951FA61F7C
:10151000B71F9C01AD01270D311D411D511D290132
:101520003A01811432E0930609F088C080910002EC
:1015300090910102A0910202B091030284159505D9
:10154000A605B70559F48FEF9FEFDC0180930002E9
:1015500090930102A0930202B09303029501B3019C
:10156000A20180916304909164040E947B06882309
:1015700009F484CF9EEFB91AC818D908F8018285FA
:101580009385A485B585880D991DA11DB11D828700
:101590009387A487B587D8011A964D915D916D9177
:1015A0007C911D97C114D10409F072CF87C0E1145A
:1015B000F10409F086CF16964D915D916D917C9165
:1015C0001997411551056105710559F457968D918B
:1015D0009D910D90BC91A02D0097A105B10541F5FD
:1015E00021C09E012F5F3F4F0E946A07882309F4A4
:1015F0004BCF89819A81AB81BC81F801238D348DD9
:10160000F9012789203129F048EF5FEF6FEF7FE084
:1016100004C048EF5FEF60E070E084179507A6070D
:10162000B70730F0C8010E94BD0881114ACF26CF0C
:10163000F80186839783A087B18743CFE114F10433
:1016400029F5D8011A964D915D916D917C911D9768
:1016500053968D919D910D90BC91A02D48175907DF
:101660006A077B0798F00E94E606882309F406CFF4
:1016700040920002509201026092020270920302B4
:101680008091520281608093520208C041E0C30100
:10169000B2010E942107882309F4F0CED501F70199
:1016A000ED59FD4FCF01880D991DE817F90719F085
:1016B0002D912193FACFA80CB91C5ECF53968D9132
:1016C0009D910D90BC91A02D84179507A607B70793
:1016D00040F4F801438B548B658B768B8481806852
:1016E0008483D80114968C9183FD02C0C10107C088
:1016F000C8010E94C009882309F4C0CEF7CF0F901B
:101700000F900F900F90DF91CF911F910F91FF904D
:10171000EF90DF90CF90BF90AF909F908F907F9091
:101720006F905F904F903F902F900895CF93DF93ED
:101730001F92CDB7DEB7698341E050E0BE016F5F15
:101740007F4F0E94060A0F90DF91CF910895CF93AB
:10175000DF93EC01898D9A8D009739F481E090E058
:101760009B838A8380E090E00BC0FC01138212828D
:101770000E94060AE98DFA8D22813381232B71F7AD
:10178000DF91CF910895DC01E0E0615038F08D9158
:10179000E827F0E0E856FE4FE491F7CF8E2F08954A
:1017A000FC0190810180F281E02DF8948181892BE8
:1017B00081832281892F809528232283A7E0B0E0AE
:1017C0001197F1F7218182238183A3E2B0E0119781
:1017D000F1F780817894EFECF0E03197F1F79823FE
:1017E00081E009F480E00895FC0190810180F2819C
:1017F000E02D892F809560FF12C0F894228182230A
:1018000082838181892B8183A3E2B0E01197F1F774
:101810008281982B9283789487ED90E011C0F894A0
:101820002281822382838181892B8183AFEFB0E083
:101830001197F1F78281982B928378948FE090E052
:101840000197F1F70895CF92DF92EF92FF920F93F5
:101850001F93CF93DF931F92CDB7DEB76C01E62EB7
:1018600008E010E0FF24F39461E08F2D8E2109F44D
:1018700060E0C60149830E94F40BFF0C015011097E
:1018800049810115110581F7411115C0F894D60160
:101890001196ED91FC91129791818C9180958923FD
:1018A00081831196ED91FC91129792818C91809594
:1018B0008923828378940F90DF91CF911F910F91AC
:1018C000FF90EF90DF90CF900895CF92DF92EF924C
:1018D000FF920F931F93CF93DF931F92CDB7DEB785
:1018E0008C01F62E40E065E579830E94230CCF2C15
:1018F0007981D72E760188E0E80EF11CF60161911E
:101900006F0140E0C8010E94230CCE14DF04B1F740
:101910000F90DF91CF911F910F91FF90EF90DF908B
:10192000CF9008958F929F92AF92BF92CF92DF9205
:10193000EF92FF92CF93DF93A091E006882311F0FE
:101940003A2F01C030E08091E10690E0880F991FA6
:101950008E5E9C4FC090E606D090E706E090E806C9
:10196000F090E90640E050E0BA01FC01C591D49145
:1019700028812A2323130FC04A015B012FEF821A0B
:10198000920AA20AB20A4C155D056E057F0538F46D
:10199000B501A401EACF342F252FCB0104C030E0DC
:1019A00020E080E090E0632F722FDF91CF91FF90D5
:1019B000EF90DF90CF90BF90AF909F908F90089561
:1019C0003FB7F89480915F0290916002A09161020C
:1019D000B091620226B5A89B05C02F3F19F0019671
:1019E000A11DB11D3FBFBA2FA92F982F8827820FA5
:1019F000911DA11DB11DBC01CD0142E0660F771FF5
:101A0000881F991F4A95D1F708958F929F92AF92A0
:101A1000BF92CF92DF92EF92FF92CF93DF93C82FC6
:101A200087E694E09093640480936304CC2369F187
:101A3000C53010F080E00DC140E060E070E0CB0107
:101A40000E9421078823B1F320E1C29FC001112425
:101A50008D5A9D4FFC01E254FE4F20812F7751F7A4
:101A60003C96408151816281738144365105610504
:101A7000710500F33497C080D180E280F380C114F7
:101A8000D104E104F10421F4D5CFC12CD12C76018D
:101A900040E0C701B6010E942107882359F28091D6
:101AA0006E0290916F028115924021F6A09173020F
:101AB000AA2309F4BFCF609171027091720261157F
:101AC000710509F4B7CF20917002222309F4B2CF37
:101AD000A09385042093770480E030E0E1E0F0E01B
:101AE000C82FAF01082E02C0440F551F0A94E2F719
:101AF0002417350741F0982F8F5F983089F789E0D8
:101B00008093800497CF8093800420917902309154
:101B10007A022115310519F040E050E008C020910B
:101B20008702309188024091890250918A02209365
:101B300078043093790440937A0450937B044601EF
:101B40005701860E971EA11CB11C809286049092AC
:101B50008704A0928804B0928904E0917402F09105
:101B60007502F0938C04E0938B04B0E00E94271E72
:101B7000860E971EA81EB91E80928D0490928E0428
:101B8000A0928F04B092900485E0EE0FFF1F8A951B
:101B9000E1F7E150FE4FEF2FFF27E6958E0E9F1ED7
:101BA000A11CB11C8092810490928204A0928304B3
:101BB000B09284042091760230917702211531058C
:101BC00021F0A90160E070E008C0409183025091CB
:101BD00084026091850270918602D701C60188193E
:101BE0009909AA09BB09840F951FA61FB71F04C036
:101BF000B695A79597958795CA95D2F780937C045B
:101C000090937D04A0937E04B0937F04853F2FE0E2
:101C10009207A105B10510F48CE018C0853F9F4FD5
:101C2000A105B10510F480E111C080918F0290915F
:101C30009002A0919102B091920280938D049093B2
:101C40008E04A0938F04B093900480E280938A0462
:101C500081E0DF91CF91FF90EF90DF90CF90BF9028
:101C6000AF909F908F900895AF92BF92CF92DF92E6
:101C7000EF92FF920F931F93CF93DF931F92CDB7F5
:101C8000DEB75C01D62EE72EFC018585811105C0EB
:101C9000C5010E945612811106C0F50113861586F2
:101CA000148680E065C040E060EFC5010E94230C0F
:101CB00001E0F12CC12C11E0C5010E94D00B682F6E
:101CC000C50169830E94D00B6981613019F48130AC
:101CD000B9F433C04F2D50E068131BC0F501838564
:101CE000181730F4E40FF51F8381802349F402C0F4
:101CF000181731F060E0193058F4F501148708C066
:101D0000F501EF0DF11D8381802B838361E009C014
:101D1000C12EF501E40FF51F9381802F8095892353
:101D20008383C5010E94F40B1F5F000F11F4F3942D
:101D300001E0F7E0FF1508F0BFCF113408F4ADCF94
:101D4000F501C386C11002C081E08587F50183815A
:101D5000882309F4A2CFD5011396ED2DFE2D950110
:101D6000255F3F4F8D918193A217B307D9F781E08B
:101D70000F90DF91CF911F910F91FF90EF90DF9027
:101D8000CF90BF90AF900895AF92BF92CF92DF9265
:101D9000EF92FF920F931F93CF93DF938B01BC01C0
:101DA0008091F0069091F1060E94650C40E06EEB88
:101DB0008091F0069091F1060E94230CE8016801E1
:101DC00089E0C80ED11CA090F006B090F10688E022
:101DD000E82EF12C01E010E0C5010E94D00B81112A
:101DE000102B000F81E0E81AF108B1F71993CC1518
:101DF000DD0549F78091F0069091F1060E94561298
:101E000091E0813009F090E0892FDF91CF911F910F
:101E10000F91FF90EF90DF90CF90BF90AF9008951B
:101E20000F931F93CF93DF93CDB7DEB729970FB6EC
:101E3000F894DEBF0FBECDBFFC012081203161F1DF
:101E40008C018091F0069091F1060E945612882331
:101E500009F1BE016F5F7F4FC8010E94C40E882345
:101E6000C9F068E0CE0101960E94C30B99858913E1
:101E700011C08D818F3361F020F48F3159F489E0E6
:101E80000CC08F3519F08F3739F004C08BE005C0D6
:101E90008AE003C080E001C08CE029960FB6F89478
:101EA000DEBF0FBECDBFDF91CF911F910F9108957F
:101EB000A091D706B091D806ED91FC9111970190B1
:101EC000F081E02D682FCD011994CF93662371F036
:101ED00093E8980F923020F0982F9D7F913131F444
:101EE000C82F8DE70E94580F80E28C27CF910C9469
:101EF000580F2F923F924F925F926F927F928F92E4
:101F00009F92AF92BF92CF92DF92EF92FF920F9388
:101F10001F93CF93DF93EC015B018D81811103C08F
:101F20008FEF9FEFC5C08C8180FFFACF81E04B8897
:101F30005C886D887E884A855B856C857D854416C6
:101F400055066606770609F480E090E03C014E01F4
:101F5000E6E08E0E911C892B09F472C04A855B85E0
:101F60006C857D856A0121E0D2222D811A012B0129
:101F700089E056944794379427948A95D1F78B8DAE
:101F80009C8DFC01223059F4828D938DA48DB58DEA
:101F9000BC01CD01620D731D841D951D40C01481CF
:101FA00011501221C114D104C9F4111117C0452BCD
:101FB000462B472B49F48F89988DA98DBA8D8E8336
:101FC0009F83A887B9870AC04E815F81688579851C
:101FD00094010E946A07882309F4A2CFEB8DFC8D3F
:101FE0008E819F81A885B9850297A109B109AC01AD
:101FF000BD01058404C0440F551F661F771F0A9456
:10200000D2F786859785A089B189840F951FA61F71
:10201000B71FBC01CD01610F711D811D911D2C8168
:1020200026FF10C0009100021091010220910202CF
:1020300030910302601771078207930731F502C0E0
:10204000C30136C040E00E942107882309F468CF0D
:10205000F601ED59FD4FD501CF010196E817F907BB
:1020600019F021912D93FACF2FEFA21AB20A8A8587
:102070009B85AC85BD850196A11DB11D8A879B8777
:10208000AC87BD8780E090E066CF750101E010E08D
:102090009601AB01BC0180916304909164040E949D
:1020A000E705882309F43CCFFFEFAF1ABF0ADFCF63
:1020B000DF91CF911F910F91FF90EF90DF90CF9024
:1020C000BF90AF909F908F907F906F905F904F9058
:1020D0003F902F900895362F90E0FC01E453FD4F80
:1020E0004491FC01EE58FC4F2491FC01E45DFC4F4F
:1020F0009491992309F46BC0442309F455C050E02E
:10210000FA013197E231F10508F04EC08827EE5808
:10211000FF4F8F4F0C941F1E809180008F7707C058
:10212000809180008F7D03C080918000877F8093A5
:1021300080003AC084B58F7702C084B58F7D84BD9E
:1021400033C08091B0008F7703C08091B0008F7D45
:102150008093B00029C0809190008F7707C0809154
:1021600090008F7D03C080919000877F80939000C6
:102170001BC08091A0008F7707C08091A0008F7D49
:1021800003C08091A000877F8093A0000DC0809144
:1021900020018F7707C0809120018F7D03C080913F
:1021A0002001877F80932001E92FF0E0EE0FFF1FD1
:1021B000EE54FD4FA591B4918FB7F894EC91311185
:1021C00003C020952E2301C02E2B2C938FBF089582
:1021D000CF93DF9390E0FC01EE58FC4F2491FC017B
:1021E000E45DFC4F8491882361F190E0880F991F92
:1021F000FC01E856FD4FC591D491FC01EE54FD4F12
:10220000A591B491611109C09FB7F8948881209578
:1022100082238883EC912E230BC0623061F49FB738
:10222000F8943881822F809583238883EC912E2B1C
:102230002C939FBF06C08FB7F894E8812E2B28837C
:102240008FBFDF91CF9108958F929F92AF92BF92EF
:10225000CF92DF92EF92FF926B017C010E94E00C23
:102260004B015C01C114D104E104F104F1F00E94BE
:10227000E00CDC01CB0188199909AA09BB09883E49
:102280009340A105B10570F321E0C21AD108E1081D
:10229000F10888EE880E83E0981EA11CB11CC114C1
:1022A000D104E104F10419F7DDCFFF90EF90DF9046
:1022B000CF90BF90AF909F908F900895CF92DF9274
:1022C000EF92FF920F931F93CF93DF93CDB7DEB7BB
:1022D000C054D1400FB6F894DEBF0FBECDBF0E94F0
:1022E00038030091E2061091E3062091E406309154
:1022F000E5066B017C01C01AD10AE20AF30A40ED3F
:10230000C41647E0D406E104F10418F48091EA060B
:10231000BCC06093E2067093E3068093E40690935A
:10232000E5061092DD061092DC061092DB06109294
:10233000DA061092D90661E08091DE060E946B10E9
:102340006AEF70E080E090E00E94241161E08091EB
:10235000DE060E94E81060E08091DE060E946B10AD
:1023600064E170E080E090E00E942411F89461E064
:102370008091DE060E946B108BE990E00197F1F7E7
:1023800062E08091DE060E94E81083E290E001970F
:10239000F1F780E00E94920C672B682B692B21F4E7
:1023A0001092EA0678943EC081E00E94920C672B5E
:1023B000682B692BA9F38E010F5F1F4F6E018FEB06
:1023C000C81A8EEFD80A780180E00E94920CF701BB
:1023D000608371838283938381E00E94920CF70172
:1023E0006483758386839783F8E0EF0EF11CEC1409
:1023F000FD0451F7789420E030E0F80140815181EC
:1024000062817381C480D580E680F78041155105D3
:102410006105710529F0C114D104E104F10421F42E
:102420001092EA0680E031C0F90183E0F595E79566
:102430008A95E1F7E752F94F8081880F4C155D05C9
:102440006E057F0508F4816080832F5F3F4F085F32
:102450001F4F2832310589F62091DD0630E040918A
:10246000D9068091DA0690E0840F911D4091DB0639
:10247000840F911D4091DC06840F911D9927281728
:10248000390771F681E08093EA06C05CDE4F0FB633
:10249000F894DEBF0FBECDBFDF91CF911F910F919A
:1024A000FF90EF90DF90CF9008950895FC01908108
:1024B0000180F281E02DF8948181292F20958223DB
:1024C000818378948DE743E050E0815021F1DA0177
:1024D0001197F1F730813923C1F3F8948281822377
:1024E00082838181892B81837894ABE7B7E0119750
:1024F000F1F7F894818128232183A3E1B1E01197BA
:10250000F1F78081982381E009F080E07894E3E698
:10251000F6E03197F1F70895BF92CF92DF92EF92F4
:10252000FF920F931F93CF93DF93B82E8B01C0E0E0
:10253000D0E06A01550FEE08FF08C017D107ACF4D0
:1025400061E08B2D0E946B10C701B6010E9424111F
:1025500060E08B2D0E946B102196C017D1076CF79D
:10256000C701B6010E942411E8CFDF91CF911F91DE
:102570000F91FF90EF90DF90CF90BF9008957F92E2
:102580008F929F92AF92BF92CF92DF92EF92FF9283
:102590000F931F93CF93DF93CDB7DEB7E3970FB6BB
:1025A000F894DEBF0FBECDBF1CA21DA21EA21FA2AB
:1025B00018A619A61AA61BA61CA61DA61EA61FA60F
:1025C00018AA19AA1AAA1BAA0AE0E02EF12C83E283
:1025D000C82ED12C91EAA92E93E0B92E2BE5822E9C
:1025E00023E0922E61E08EE20E946B10C6010197FB
:1025F000F1F760E08EE20E946B10F5016491F40146
:10260000249130E0220F331F2E5E3C4FF90185915B
:10261000949108EA11E620E030E0462F0E94E2168D
:10262000611571058105910539F0DC01CB01019639
:10263000A11DB11DBF7003C080E090E0DC01BC01B2
:10264000990F880B990B0E94121D20E030E040E0AA
:102650005FE30E949E1D2BE734E14EEA5EE30E9499
:102660009E1D9B01AC016CA17DA18EA19FA10E942A
:10267000321C6CA37DA38EA39FA3F1E0EF1AF10897
:1026800009F0B0CF0AE010E08091F0069091F106D9
:102690000E94561240E06CEC8091F0069091F10699
:1026A0000E94230C4091EB0664E48091F006909127
:1026B000F1060E94230C8091ED068823E9F1E09158
:1026C000EC06E950E33040F4F0E0EE0FFF1FE45B6E
:1026D000FD4FC080D18004C0AEEECA2EA2E0DA2E3B
:1026E0008091EE06882311F18091EB0681111EC0C6
:1026F0000E9438034B015C010D2C000CEE08FF0812
:102700008091F0069091F1060E94D00B8130A1F0EB
:102710000E943803DC01CB018C199D09AE09BF0969
:1027200088159905AA05BB0558F306C0B601DD0C4E
:10273000880B990B0E942411E091F006F091F106AC
:10274000138615861486DF011B96CF0103961E9211
:10275000A817B907E1F7BE016C5E7F4FCF010E9459
:10276000340E882349F067E0CE0144960E94C30BE3
:102770009B8D891709F4CAC220E030E04EEF52EC7D
:1027800068A579A58AA59BA50E94321C68A779A790
:102790008AA79BA70150110909F076CF0AE010E043
:1027A0000E945E118823B1F18091DF068B3041F1E8
:1027B00088F18551823070F56091D90670E080E033
:1027C00090E00E94101D20E030E040E853E40E94B9
:1027D0009E1D6B017C018091DA06682F70E080E01D
:1027E00090E00E94121D9B01AC01C701B6010E943E
:1027F000321C2DEC3CEC4CEC5DE30E949E1D07C0AE
:102800006091D90670E080E090E00E94101D4B01BD
:102810005C0106C0812C912C40ECA42E4FE7B42E15
:102820000E945E11882309F441C08091DF068B303D
:1028300029F0E0F18551823058F038C06091DB0614
:1028400070E080E090E00E94101D6B017C0134C0BC
:102850007090DB06672D6F7770E080E090E00E945B
:10286000121D20E030E040E853E40E949E1D6B0101
:102870007C018091DC06682F70E080E090E00E948F
:10288000121D9B01AC01C701B6010E94321C2DEC48
:102890003CEC4CEC5DE30E949E1D6B017C0177FEDD
:1028A0000BC0F7FAF094F7F8F09406C0C12CD12CC5
:1028B00030ECE32E3FE7F32EA50194016CA57DA536
:1028C0008EA59FA50E94321C6CA77DA78EA79FA7EF
:1028D000A701960168A979A98AA99BA90E94321C1F
:1028E00068AB79AB8AAB9BAB0150110909F058CFAB
:1028F0007E0184E2E80EF11C8E010C5E1F4F5E012A
:10290000A4E3AA0EB11C6801F70161917191819154
:1029100091917F0120E030E040E251E40E949E1C52
:10292000D6016D937D938D939D936D01EA14FB0405
:1029300059F710928B0580913E0790913F07909335
:102940008C0580938D0586E090E0F80141915191CE
:10295000619171918F0140933A0750933B076093C7
:102960003C0770933D07EAE3F7E0DC01A857BA4F54
:1029700027E0EE33F20719F021912D93F9CF049659
:102980008631910511F78091A0058B838091A10577
:102990008C838091A2059091A3059E838D83809165
:1029A000A4058F8388E292E09A83898388E0E5EA30
:1029B000F5E0DE01189601900D928A95E1F780917D
:1029C000AD059091AE05998B888B8091AF058A8B70
:1029D0008091B0058B8B94E0D92E02E023E0F22E9B
:1029E00080E2E82E8EE70E94580FCE0101960E94E9
:1029F000C504182F282F30E02E5F3F4F61E0832F52
:102A00000E94650F61E082E0810F0E94650F61E026
:102A10008B810E94650F61E08C810E94650F1B8194
:102A20008C81180FA12CB12CCE0101960E94C504F7
:102A300090E0A816B90694F46A2DCE0101960E9482
:102A4000C90461E00E94650F6A2DCE0101960E94C3
:102A5000C904180F4FEFA41AB40AE6CF61E0812F22
:102A600080950E94650F60ED77E080E090E00E9425
:102A700024110E9438034B015C0111E00E943803CD
:102A800068197909643F71400CF0ACCF80916206FF
:102A90008111C1C0809163068111BDC002C0109335
:102AA00064068091D7069091D806DC01ED91FC91E7
:102AB0000480F581E02D1995892B09F4A2C080913D
:102AC000D7069091D806DC01ED91FC910680F78144
:102AD000E02D19958093660690916506992311F172
:102AE0008E3719F4F09263068CC08D37D9F480913B
:102AF000D7069091D806DC01ED91FC910480F58118
:102B0000E02D1995892B59F28091D7069091D8061E
:102B1000DC01ED91FC910680F781E02D19958E2561
:102B20008093660680916406882339F0809166065A
:102B30008E25809366061092640680916506833028
:102B400038F02091660690916706920F9093670681
:102B50008130A1F058F08230C1F08330E9F48091E7
:102B6000660680935D06D09265069BCF80916606CF
:102B70008E3709F096CF1093650693CF8091660645
:102B800080935E06009365068CCF809166068093E5
:102B90005F06F092650685CF8F3618F000936306C6
:102BA00030C0282F30E040915F0650E04D5F5F4F0E
:102BB00024173507A9F4909167069F3F49F4909137
:102BC000660690936006109362061092630602C038
:102BD000109363068450809361061092650611C0BD
:102BE00080916606E0915B06F0915C062E0F3F1F18
:102BF000F90134978083809165068F5F8093650625
:102C000050CF8091620681111BC08091630688239A
:102C100009F434CFE7CE1092650610926406109244
:102C20006706109262061092630610926006109278
:102C30005D0610925E0610925F061092610631CF1B
:102C400080915D068B38E1F5E0915B06F0915C06C2
:102C5000F0934E05E0934D0580934F0581E08093FE
:102C6000540580916006809352058091630680939D
:102C70005505809161068093530580915E0680938F
:102C8000500580915F06809351058481811113C0A6
:102C900042E350E065E070E08DE090E00E948C122D
:102CA00080913E0790913F07019690933F07809354
:102CB0003E0711E00EC044EF51E063E070E004C055
:102CC00044EF51E062E070E08DE090E00E948C12F1
:102CD00010E068EE73E080E090E00E942411112380
:102CE00009F47ECEE3960FB6F894DEBF0FBECDBFDB
:102CF000DF91CF911F910F91FF90EF90DF90CF90D8
:102D0000BF90AF909F908F907F9008958091F00634
:102D10009091F1060E9456128823F1F1BE016F5F77
:102D20007F4FCE0144960E94C40E8823A9F168E02B
:102D3000CE0101960E94C30B998589132DC069812C
:102D400028E0629FB00111248A81282F30E0322FC1
:102D50002227330F330F330F262B372B8C898031EB
:102D6000C9F4688570E08F81AB01481B5109CA0125
:102D70009695982F8827979587950E940B1E6051EE
:102D80007109207FE3E0220F331FEA95E1F7620F1C
:102D9000731F04C0B90102C060E874EE613854EEDC
:102DA00075070CF4E9CC072E000C880B990B0E94D8
:102DB000121D20E030E040E05CE30E949E1D9B017C
:102DC000AC01DECCCF92DF92EF92FF920F931F9374
:102DD000E82FF92F05C0015011092109310961F1CE
:102DE000908196239417B9F305C001501109210968
:102DF000310911F1908196239413F7CFC12CD12C76
:102E0000E12CF12C0AC08FEFC81AD80AE80AF80A98
:102E10000C151D052E053F0579F08081862384174A
:102E200091F36C2D7D2D8E2D9F2D1F910F91FF9075
:102E3000EF90DF90CF90089560E070E080E090E048
:102E40001F910F91FF90EF90DF90CF900895CF9357
:102E5000DF93CDB7DEB728970FB6F894DEBF0FBE6D
:102E6000CDBF789484B5826084BD84B5816084BD13
:102E700085B5826085BD85B5816085BD80916E0018
:102E8000816080936E001092810080918100826049
:102E90008093810080918100816080938100809186
:102EA00080008160809380008091B1008460809375
:102EB000B1008091B00081608093B000809191005A
:102EC0008260809391008091910081608093910055
:102ED000809190008160809390008091A100826039
:102EE0008093A1008091A10081608093A1008091D6
:102EF000A00081608093A000809121018260809376
:102F00002101809121018160809321018091200124
:102F100081608093200180917A00846080937A00A0
:102F200080917A00826080937A0080917A0081603B
:102F300080937A0080917A00806880937A00109262
:102F4000C10061E08EE20E94E81060E08EE20E9423
:102F50006B1060E08FE20E94E81061E08DE00E945B
:102F6000E81061E08DE00E94E81084E58093880518
:102F70008093570580E3809389058093580581E30A
:102F800080938A0580935905E091C004F091C104B3
:102F900082E08083E091BC04F091BD041082E09156
:102FA000BE04F091BF048FEC80831092C804E091BE
:102FB000C404F091C50486E08083E091C204F091DE
:102FC000C304808180618083E091C204F091C304D6
:102FD000808188608083E091C204F091C304808185
:102FE00080688083E091C204F091C30480818F7D6A
:102FF000808380EB94E09093D8068093D706E0918D
:10300000F006F091F106138615861486DF011B96F3
:1030100033961E92AE17BF07E1F71092EF0611E04C
:10302000BE016F5F7F4F8091F0069091F1060E9484
:10303000340E882309F44AC067E0CE0101960E944D
:10304000C30B98858913ECCF8091EB06811127C0C3
:103050008091F0069091F1060E945612BE016F5FBA
:103060007F4F8091F0069091F1060E94650C40E040
:1030700064EB8091F0069091F1060E94230C809100
:10308000F0069091F1060E94D00B082F8091F00677
:103090009091F1060E945612002309F481C200911A
:1030A000EC06CE0101960E94100F801718F4809153
:1030B000EC0604C0CE0101960E94100F8093EC062E
:1030C0008091EF068F5F8093EF06AACF62E0809138
:1030D000DE060E94E81080E398EFAFEFBFEF809329
:1030E000E2069093E306A093E406B093E50668EE4B
:1030F00073E080E090E00E94241175E0E72EF12C4F
:10310000E1E62E2EE3E03E2EF7EACF2EF3E0DF2EAF
:10311000412CA2E05A2E612C712C809196048823B8
:1031200039F081E994E00E94C0098111109296045F
:10313000109272041092700410926D0410926C043C
:1031400084E080936B040E9438038B0161E08091DE
:103150006B040E94E81061E080916B040E946B1088
:10316000BFB6F89480915702811125C0F101949166
:10317000F6018491E92FF0E0EE0FFF1FE856FD4FB6
:10318000A591B4919C91892321F461E085E30E948B
:103190006B1061E085E30E94E8108CB580618CBD06
:1031A0008CB580648CBD61E084E30E94E81061E02E
:1031B00083E30E94E810809157028F5F809357024B
:1031C000BFBEF2E5F0936504109266048091650439
:1031D000909166040E946C055AE0B52E8FEF0E9414
:1031E0002D05BA94B110FACF87E694E00E946F05DE
:1031F00020E030E0A90160E087E694E00E948505C8
:10320000B82E80937104A1E08A1749F00E94380318
:10321000601B710B613D774058F381E056C02AEA8C
:1032200031E040E050E068E087E694E00E948505E8
:1032300082FF03C0B092720410C044E0B42E0E941A
:10324000340580937104BA94B110F9CF8A3A11F021
:1032500082E03BC082E080937204809172048230ED
:1032600021F0812C912C540105C0812C912CA12C92
:1032700030E4B32E20E030E0A90167E387E694E074
:103280000E948505A501940169E287E694E00E9409
:10329000850580937104882349F00E943803601BE0
:1032A000710B613D774030F388E00FC0809172046C
:1032B000823001F520E030E0A9016AE387E694E07E
:1032C0000E948505882341F086E080936C0487E6A0
:1032D00094E00E94220567C10E943405807C803CF6
:1032E00019F483E0809372040E9434050E9434052F
:1032F0000E94340587E694E00E942205E0E5E09311
:1033000065041092660481E00E94050D882329F06F
:1033100080919604882341F046C180E00E94050D0B
:10332000882309F440C1F4CF80918A04803109F5E3
:1033300082E0809396041092A8041092A90410923F
:10334000AA041092AB0480918B0490918C04A0E0AD
:10335000B0E025E0880F991FAA1FBB1F2A95D1F75F
:103360008093A4049093A504A093A604B093A7040B
:1033700058C0803209F017C183E080939604809191
:103380008D0490918E04A0918F04B091900480934D
:10339000A8049093A904A093AA04B093AB048983D2
:1033A0009A83AB83BC83812C912C540149815A812F
:1033B0006B817C819E012F5F3F4F83E794E00E94E9
:1033C0006A07882309F4EFC0D301C201009080048A
:1033D00004C0880F991FAA1FBB1F0A94D2F7880E3A
:1033E000991EAA1EBB1E49815A816B817C818091E6
:1033F0008A04803129F088EF9FEFAFEFBFE004C06F
:1034000088EF9FEFA0E0B0E0481759076A077B07F5
:1034100068F28092A4049092A504A092A604B092AF
:10342000A70483E794E09093AD048093AC0481E01B
:103430008093950410929704109298041092990426
:1034400010929A0410929B0410929C0410929D0476
:1034500010929E0410929F041092A0041092A10456
:103460001092A2041092A30444E650E065E070E0DC
:103470008DE090E00E948C12E1EBF5E080E090E0BE
:10348000208121112AC021E1289F8001299F100D50
:1034900011240F541A4F81E0D8018C9380ED97E0EE
:1034A000A0E0B0E0F80181839283A383B4838FEF1F
:1034B0009FEF968385838FEB92E1928781870E94AD
:1034C0003803D8011B966D937D938D939C931E9723
:1034D00050961C921E921F9705C0019671968A30D5
:1034E000910571F60E9438034B015C0189EBE82ECF
:1034F00085E0F82E01EB15E0F8018081882309F4BE
:1035000042C0438554856585768524013501441A7A
:10351000550A660A770A4181528163817481441693
:1035200055066606770600F1813019F0823031F0D9
:1035300011C00184F285E02D19950CC061E0F701FE
:103540009081911160E0D7016C93F70131978081F0
:103550000E946B10F80183869486A586B6868785BF
:1035600090890196908B8787D80115968D919C91B3
:10357000169797FD08C01F962D913C9150972817DC
:1035800039070CF01C920F5E1F4FB1E1EB0EF11CDE
:10359000E6E00B351E0709F0AFCF0E94FD02A2CF77
:1035A0001093EB067CCD44EF51E063E070E08DE0DA
:1035B00090E00E948C1268EE73E080E090E00E9440
:1035C0002411F1E0EF1AF10809F0A7CD4DCF1092C8
:1035D000B3041092B20488EE93E0A0E0B0E08093D0
:1035E000B4049093B504A093B604B093B70480E1FB
:1035F00092E09093B1048093B00485EC90E09093B6
:10360000BD048093BC0484EC90E09093BF0480934D
:10361000BE0480EC90E09093C1048093C00481ECE0
:1036200090E09093C3048093C20482EC90E0909366
:10363000C5048093C40486EC90E09093C704809303
:10364000C6041092C9041092CA041092CB041092BE
:10365000CC0480E5809365041092660410926C049B
:1036600010926D04109270041092720482E090E047
:10367000A0E0B0E08093730490937404A093750469
:10368000B093760410928A041092940410929304DA
:1036900080E292E0909392048093910410929604B9
:1036A00060E082E30E94E810E4EAF3E0E491E09352
:1036B0002C07EEE5F3E0E491F0E0EE0FFF1FEE5E85
:1036C000FC4F8591949190932E0780932D07109233
:1036D00037071092390710923807E7E3F7E01292A4
:1036E00087E0EF32F807D9F785E592E19093FD0680
:1036F0008093FC068CE297E09093F1068093F006AD
:103700001092EF061092EB0689E08093EC0681E0C0
:103710008093ED068093EE0680E38093DE0686E1DB
:103720008093DF06E2EAF3E0E491E093E006ECE563
:10373000F3E0E491E093E10680E89EE3A0E0B0E0EE
:103740008093E6069093E706A093E806B093E90617
:10375000109214071092130788EE93E0A0E0B0E0F7
:103760008093150790931607A0931707B093180737
:1037700080E492E0909312078093110710922B0738
:1037800010922A0710921D07109265061092640687
:1037900010926706109268061092620610926306F5
:1037A0001092600689E696E090935C0680935B0633
:1037B00080EB94E09093D8068093D706E1EBF5E098
:1037C0001082719686E0EB35F807D1F750E15093FF
:1037D000A00541E04093A10588E895E09093A305FA
:1037E0008093A20586E18093A40528E232E030931D
:1037F0009F0520939E0588E0E4E0F2E0A5EAB5E0AD
:1038000001900D928A95E1F78EEF9FEF9093AE05B0
:103810008093AD051092AF051092B005509300074C
:103820004093010747E555E0509303074093020793
:1038300041E3409304073093FF062093FE0628E0FF
:10384000E4E0F2E0A5E0B7E001900D922A95E1F7FF
:1038500090930E0780930D0710920F071092100798
:1038600008955058BB27AA270E94491C0C94641D38
:103870000E94561D38F00E945D1D20F039F49F3FD4
:1038800019F426F40C94531D0EF4E095E7FB0C9408
:103890004D1DE92F0E94751D58F3BA176207730773
:1038A0008407950720F079F4A6F50C94971D0EF483
:1038B000E0950B2EBA2FA02D0B01B90190010C0140
:1038C000CA01A0011124FF27591B99F0593F50F458
:1038D000503E68F11A16F040A22F232F342F4427B0
:1038E000585FF3CF469537952795A795F0405395A8
:1038F000C9F77EF41F16BA0B620B730B840BBAF078
:103900009150A1F0FF0FBB1F661F771F881FC2F7E2
:103910000EC0BA0F621F731F841F48F487957795F6
:103920006795B795F7959E3F08F0B0CF9395880FB0
:1039300008F09927EE0F9795879508950E94B21C7D
:103940000C94641D0E945D1D58F00E94561D40F0AD
:1039500029F45F3F29F00C944D1D51110C94981DD2
:103960000C94531D0E94751D68F39923B1F35523E0
:1039700091F3951B550BBB27AA2762177307840782
:1039800038F09F5F5F4F220F331F441FAA1FA9F318
:1039900035D00E2E3AF0E0E832D091505040E69506
:1039A000001CCAF72BD0FE2F29D0660F771F881F67
:1039B000BB1F261737074807AB07B0E809F0BB0B5A
:1039C000802DBF01FF2793585F4F3AF09E3F51056E
:1039D00078F00C944D1D0C94981D5F3FE4F3983ED5
:1039E000D4F3869577956795B795F7959F5FC9F757
:1039F000880F911D9695879597F90895E1E0660FD8
:103A0000771F881FBB1F621773078407BA0720F050
:103A1000621B730B840BBA0BEE1F88F7E0950895B9
:103A2000E89409C097FB3EF4909580957095619558
:103A30007F4F8F4F9F4F9923A9F0F92F96E9BB270E
:103A40009395F695879577956795B795F111F8CF8A
:103A5000FAF4BB0F11F460FF1BC06F5F7F4F8F4FF5
:103A60009F4F16C0882311F096E911C0772321F0EB
:103A70009EE8872F762F05C0662371F096E8862F83
:103A800070E060E02AF09A95660F771F881FDAF7DA
:103A9000880F9695879597F9089597F99F6780E81D
:103AA00070E060E008959FEF80EC089500240A9490
:103AB0001616170618060906089500240A94121609
:103AC0001306140605060895092E0394000C11F43C
:103AD000882352F0BB0F40F4BF2B11F460FF04C0E9
:103AE0006F5F7F4F8F4F9F4F089557FD9058440F42
:103AF000551F59F05F3F71F04795880F97FB991F4D
:103B000061F09F3F79F08795089512161306140609
:103B1000551FF2CF4695F1DF08C016161706180696
:103B2000991FF1CF86957105610508940895E89471
:103B3000BB2766277727CB0197F908950E94B11D0F
:103B40000C94641D0E94561D38F00E945D1D20F0EB
:103B5000952311F00C944D1D0C94531D11240C94BD
:103B6000981D0E94751D70F3959FC1F3950F50E04D
:103B7000551F629FF001729FBB27F00DB11D639F1F
:103B8000AA27F00DB11DAA1F649F6627B00DA11DC5
:103B9000661F829F2227B00DA11D621F739FB00D6B
:103BA000A11D621F839FA00D611D221F749F3327DB
:103BB000A00D611D231F849F600D211D822F762F74
:103BC0006A2F11249F5750409AF0F1F088234AF051
:103BD000EE0FFF1FBB1F661F771F881F91505040BD
:103BE000A9F79E3F510580F00C944D1D0C94981D33
:103BF0005F3FE4F3983ED4F3869577956795B79544
:103C0000F795E7959F5FC1F7FE2B880F911D96955D
:103C1000879597F9089597FB072E16F4009407D01F
:103C200077FD09D00E94321E07FC05D03EF4909526
:103C300081959F4F0895709561957F4F0895EE0F80
:103C4000FF1F881F8BBF0790F691E02D19940E94EB
:103C5000461EA59F900DB49F900DA49F800D911DB1
:103C600011240895AA1BBB1B51E107C0AA1FBB1F4B
:103C7000A617B70710F0A61BB70B881F991F5A95F8
:103C8000A9F780959095BC01CD010895A29FB00140
:103C9000B39FC001A39F700D811D1124911DB29F80
:103CA000700D811D1124911D089581E090E0F8941C
:083CB0000C945A1EF894FFCF9A
:103CB800FFFFFFFF00A21300EBB1D440000000009B
:103CC800940210025D023B024F02DB02000000007A
:103CD800960B100200000000C904C5040000000093
:103CE80036033603000000003603360300000000E8
:103CF800AF04A70B8E0402058408FE095E00BC0011
:023D0800770141
:00000001FF
