:100000000C943C010C946D010C946D010C946D01E9
:100010000C946D010C946D010C946D010C946D01A8
:100020000C946D010C946D010C946D010C946D0198
:100030000C946D010C946D010C946D010C946D0188
:100040000C946D010C946D010C946D010C946D0178
:100050000C946D010C946D010C946D010C941C05B5
:100060000C946D010C9490050C9466050C946D0134
:100070000C946D010C946D010C946D010C946D0148
:100080000C946D010C946D010C946D010C946D0138
:100090000C946D010C946D010C946D010C946D0128
:1000A0000C946D010C946D010C946D010C946D0118
:1000B0000C946D010C946D010C946D010C946D0108
:1000C0000C946D010C946D010C946D010C946D01F8
:1000D0000C946D010C946D010C946D010C946D01E8
:1000E0000C946D01A901AC019B019F01A301E301E7
:1000F000B001B401BA01BE01C201C801CC01D001F6
:10010000E301D601DA01DE010C94E3010C94C8018D
:100110000C949F010C9481020C94A3020C94CC01CA
:100120000C94AC010C94C2010C9421030C94B40106
:100130000C948C030C94D0010C947C030C94C60595
:100140000C94A9010C94A3010C94B0010C94950299
:100150000C94BA010C94BE010C94DE010C94DA02EA
:100160000C9456020C94D6010C949B010C94DA0169
:1001700000002100240027002A002D003000330059
:1001800001010000040107010A010000220025000E
:1001900028002B002E003100340002010000050170
:1001A00008010B01050505050705080808080202F6
:1001B00002020A0A08080404040401010101010101
:1001C00001010303030303030303040707070C0CE4
:1001D0000C0C0C0C0C0C02020202060606060606AB
:1001E00006060B0B0B0B0B0B0B0B01021020200850
:1001F0000810204010204080020102010804020182
:1002000001020408102040808040201008040201F0
:100210008004020180402010080402010804020149
:1002200001020408102040800102040810204080D0
:1002300000000A0B02090C0D0E0807030401000060
:1002400000000000000000000000000000000000AE
:10025000000000000000000000000000121110006B
:10026000000000000000000000000000000000008E
:10027000000000000000C60511241FBECFEFD1E230
:10028000DEBFCDBF00E00CBF13E0A0E0B2E0E0E7CE
:10029000F7E100E00BBF02C007900D92A036B10756
:1002A000D9F724E0A0E6B3E001C01D92A73CB20755
:1002B000E1F711E0CCE3D1E000E006C021970109AD
:1002C000802FFE010E94A90BCB33D10780E00807E5
:1002D000A9F70E9420060C94B60B0C940000E09144
:1002E0009903F0919A030190F081E02D682F89E93C
:1002F00093E01994362F90E0FC01E05DFD4F4491AE
:10030000FC01E651FE4F2491FC01EC55FE4F949107
:10031000992309F46BC0442309F455C050E0FA0155
:100320003197E231F10508F04EC08827EE58FF4FB3
:100330008F4F0C94A90B809180008F7707C080911C
:1003400080008F7D03C080918000877F8093800034
:100350003AC084B58F7702C084B58F7D84BD33C029
:100360008091B0008F7703C08091B0008F7D809323
:10037000B00029C0809190008F7707C080919000D5
:100380008F7D03C080919000877F809390001BC079
:100390008091A0008F7707C08091A0008F7D03C05F
:1003A0008091A000877F8093A0000DC080912001E4
:1003B0008F7707C0809120018F7D03C0809120013D
:1003C000877F80932001E92FF0E0EE0FFF1FE657B3
:1003D000FE4FA591B4918FB7F894EC91311103C001
:1003E00020952E2301C02E2B2C938FBF08953FB74D
:1003F000F8948091950390919603A0919703B09102
:10040000980326B5A89B05C02F3F19F00196A11DA2
:10041000B11D3FBFBA2FA92F982F8827820F911D9A
:10042000A11DB11DBC01CD0142E0660F771F881FE1
:10043000991F4A95D1F708958F929F92AF92BF92DC
:10044000CF92DF92EF92FF926B017C010E94F70145
:100450004B015C01C114D104E104F104F1F00E94EC
:10046000F701DC01CB0188199909AA09BB09883E6B
:100470009340A105B10570F321E0C21AD108E1084B
:10048000F10888EE880E83E0981EA11CB11CC114EF
:10049000D104E104F10419F7DDCFFF90EF90DF9074
:1004A000CF90BF90AF909F908F900895CF92DF92A2
:1004B000EF92FF920F931F93CF93DF936C017A011A
:1004C0008B01C0E0D0E0CE15DF0589F0D8016D9139
:1004D0008D01D601ED91FC910190F081E02DC601D6
:1004E0001995892B11F47E0102C02196ECCFC7012A
:1004F000DF91CF911F910F91FF90EF90DF90CF9000
:100500000895FC01918D828D981761F0828DDF0135
:10051000A80FB11D5D968C91928D9F5F9F73928FF6
:1005200090E008958FEF9FEF0895FC01918D828DEB
:10053000981731F0828DE80FF11D858D90E00895B8
:100540008FEF9FEF0895FC01918D228D892F90E010
:10055000805C9F4F821B91098F739927089589E9C9
:1005600093E00E94A30221E0892B09F420E0822F6E
:100570000895FC01848DDF01A80FB11DA35ABF4F60
:100580002C91848D90E001968F739927848FA68992
:10059000B7892C93A089B1898C9180648C93938DB9
:1005A000848D981306C00288F389E02D80818F7DA9
:1005B00080830895EF92FF920F931F93CF93DF9361
:1005C000EC0181E0888F9B8D8C8D981305C0E889A4
:1005D000F989808185FD24C0F62E0B8D10E00F5F18
:1005E0001F4F0F731127E02E8C8DE8120CC00FB631
:1005F00007FCFACFE889F989808185FFF5CFCE0124
:100600000E94B902F1CF8B8DFE01E80FF11DE35A74
:10061000FF4FF0820B8FEA89FB898081806207C0DF
:10062000EE89FF896083E889F9898081806480830D
:1006300081E090E0DF91CF911F910F91FF90EF90BB
:100640000895CF93DF93EC01888D8823C9F0EA8960
:10065000FB89808185FD05C0A889B9898C9186FDBB
:100660000FC00FB607FCF5CF808185FFF2CFA889B8
:10067000B9898C9185FFEDCFCE010E94B902E7CFF9
:10068000DF91CF91089580E090E0892B21F00E94C6
:10069000AF02811125C080E090E0892B41F080E01D
:1006A00090E0892B21F00E94000081111CC080E0A5
:1006B00090E0892B41F080E090E0892B21F00E94AE
:1006C0000000811113C080E090E0892BA1F080E050
:1006D00090E0892B81F00E94000081110AC00895EA
:1006E0000E940000D8CF0E940000E1CF0E940000CD
:1006F000EACF0C9400000895CF93DC011696CC91BC
:100700001697ED91FC910280F381E02D1995C1506F
:10071000C81B8C2FCF9108958BE00895BF92CF9284
:10072000DF92EF92FF920F931F93CF93DF93B82E38
:100730008B01C0E0D0E06A01550FEE08FF08C0173A
:10074000D107ACF461E08B2D0E947A01C701B6019C
:100750000E941C0260E08B2D0E947A012196C01736
:10076000D1076CF7C701B6010E941C02E8CFDF91E8
:10077000CF911F910F91FF90EF90DF90CF90BF909E
:100780000895009769F0FC0101900020E9F7319786
:10079000AF01481B590BBC0189E993E00C94560248
:1007A00080E090E0089588E192E00C94C103CF933B
:1007B000DF930E94C103EC010E94D3038C0F9D1FA5
:1007C000DF91CF9108950C94C1038F929F92AF92C5
:1007D000BF920F931F93CF93DF93CDB7DEB7A1974F
:1007E0000FB6F894DEBF0FBECDBF19A2423008F499
:1007F0004AE08E010F5D1F4F842E912CA12CB12C4D
:10080000A50194010E94870BE62FB901CA0101508E
:100810001109EA3014F4E05D01C0E95CD801EC9301
:10082000232B242B252B61F7C8010E94C103A1961D
:100830000FB6F894DEBF0FBECDBFDF91CF911F91F1
:100840000F91BF90AF909F908F9008954F925F92BD
:100850006F927F928F929F92AF92BF92CF92DF92D0
:10086000EF92FF926B017C019B01AC010E94820B15
:10087000882319F08BE192E01AC046015701E894F1
:10088000B7F82FEF3FEF4FE75FE7C501B4010E94D4
:10089000820B811110C02FEF3FEF4FE75FE7C501DB
:1008A000B4010E942A0A181634F48FE192E00E94E3
:1008B000C1037C017FC02FEF3FEF4FE75FE4C7012B
:1008C000B6010E94100B18161CF483E292E0EFCFE1
:1008D0002FEF3FEF4FE75FECC701B6010E942A0AF6
:1008E00087FDF3CF20E030E0A901C701B6010E94E7
:1008F0002A0A87FF09C08DE20E946F015C01F7FAA6
:10090000F094F7F8F09402C0A12CB12C2AE037ED56
:1009100043EA5BE3C701B6010E94BE092B013C011B
:100920000E942F0A6B017C010E945E0A9B01AC01B0
:10093000C301B2010E94BD092B013C014AE0C7017D
:10094000B6010E94E5037C01EA0CFB1C8EE20E94CA
:100950006F01E80EF91E20E030E040E251E4C301EF
:10096000B2010E94150B2B013C010E942F0A4B0182
:10097000A12CB12C4AE0C501B4010E94E503E80EA8
:10098000F91EC501B4010E945E0A9B01AC01C301BE
:10099000B2010E94BD0920E030E040E251E40E9433
:1009A000150B0E942F0A80E090E04AE00E94E503C8
:1009B000E80EF91E0E94D3038E0D9F1DFF90EF904D
:1009C000DF90CF90BF90AF909F908F907F906F906F
:1009D0005F904F900895CF92DF92EF92FF92CF9366
:1009E000DF936C01990FEE08FF08F7FE12C08DE24D
:1009F0000E946F01EC0166277727CB016C197D09F6
:100A00008E099F094AE00E94E5037C01EC0EFD1E61
:100A100006C04AE0C701B6010E94E5037C010E94BE
:100A2000D3038E0D9F1DDF91CF91FF90EF90DF904C
:100A3000CF9008950E94B10B1F920F920FB60F92A4
:100A400011242F933F938F939F93AF93BF938091E4
:100A5000910390919203A0919303B09194033091EC
:100A6000900323E0230F2D3720F40196A11DB11D23
:100A700005C026E8230F0296A11DB11D2093900307
:100A80008093910390939203A0939303B093940364
:100A90008091950390919603A0919703B09198034C
:100AA0000196A11DB11D8093950390939603A09389
:100AB0009703B0939803BF91AF919F918F913F910E
:100AC0002F910F900FBE0F901F9018951F920F92AD
:100AD0000FB60F9211240BB60F922F933F934F93A3
:100AE0005F936F937F938F939F93AF93BF93EF9396
:100AF000FF9389E993E00E94B902FF91EF91BF91C2
:100B0000AF919F918F917F916F915F914F913F91A5
:100B10002F910F900BBE0F900FBE0F901F90189546
:100B20001F920F920FB60F9211240BB60F922F93B4
:100B30008F939F93EF93FF93E091A903F091AA0302
:100B40008081E091AF03F091B00382FD12C09081EB
:100B50008091B2038F5F8F732091B303821751F09E
:100B6000E091B203F0E0E756FC4F958F8093B2031B
:100B700001C08081FF91EF919F918F912F910F90F4
:100B80000BBE0F900FBE0F901F901895E9E9F3E090
:100B90001382128288EE93E0A0E0B0E08483958314
:100BA000A683B78384E092E09183808385EC90E014
:100BB0009587848784EC90E09787868780EC90E027
:100BC000918B808B81EC90E0938B828B82EC90E018
:100BD000958B848B86EC90E0978B868B118E128E92
:100BE000138E148EA9E4B4E01A961C921A971996E3
:100BF0001C9219971C961C921C971D961C921D976F
:100C000017961C92179718961C92189715961C9277
:100C1000159787E594E08D939C93F093C604E09339
:100C2000C504E6E3F4E084E192E0918380831386D7
:100C30001486158616861786108A118A128A0895D8
:100C4000CF93DF93CDB7DEB766970FB6F894DEBFCC
:100C50000FBECDBF789484B5826084BD84B58160B9
:100C600084BD85B5826085BD85B5816085BD809177
:100C70006E00816080936E001092810080918100EF
:100C800082608093810080918100816080938100E7
:100C9000809180008160809380008091B1008460A9
:100CA0008093B1008091B00081608093B00080910A
:100CB0009100826080939100809191008160809387
:100CC0009100809190008160809390008091A100BC
:100CD00082608093A1008091A10081608093A10037
:100CE0008091A00081608093A000809121018260AA
:100CF0008093210180912101816080932101809165
:100D0000200181608093200180917A00846080932B
:100D10007A0080917A00826080937A0080917A00D4
:100D2000816080937A0080917A00806880937A0055
:100D30001092C100E7EFF1E02491E1EBF1E0849142
:100D40008823A1F090E0880F991FFC01E059FE4F25
:100D5000A591B491FC01E657FE4F859194918FB710
:100D6000F8949C91E92FE22BEC938FBFE091A903BB
:100D7000F091AA0382E08083E091A503F091A6039D
:100D80001082E091A703F091A8038FEC808310926A
:100D9000B103E091AD03F091AE0386E08083E09172
:100DA000AB03F091AC03808180618083E091AB0361
:100DB000F091AC03808188608083E091AB03F09177
:100DC000AC03808180688083E091AB03F091AC0339
:100DD00080818F7D808389E993E09093C60480931E
:100DE000C50442E350E063E070E08DE090E00E94D3
:100DF0008E035524539473E0472E5E0121E1A20E29
:100E0000B11C809150048111A3C2809151048111C1
:100E10009FC204E010E28091C5049091C604DC01F9
:100E2000ED91FC910480F581E02D1995892B09F451
:100E3000A8C08091C5049091C604DC01ED91FC919D
:100E40000680F781E02D1995809354049091530406
:100E5000992331F18E3719F44092510492C08D37A5
:100E6000F9F48091C5049091C604DC01ED91FC91E8
:100E70000480F581E02D1995892B79F08091C504C6
:100E80009091C604DC01ED91FC910680F781E02D84
:100E9000199581278093540403C050925204BBCF0C
:100EA00080915204882339F08091540481278093E3
:100EB00054041092520480915304833038F02091EE
:100EC000540490915504920F909355048130A1F0F1
:100ED00058F08230C9F08330F1F48091540480934B
:100EE0004B040093530497CF809154048E3709F03C
:100EF00092CF509253048FCF8091540480934C042E
:100F0000B2E0B093530487CF8091540480934D0492
:100F10004092530480CF8F3620F0E2E0E0935104FA
:100F200030C0282F30E040914D0450E04D5F5F4FBE
:100F300024173507A9F4909155049F3F49F49091E7
:100F4000540490934E04509250041092510402C0E5
:100F500050925104845080934F041092530411C056
:100F600080915404E0914904F0914A042E0F3F1FF0
:100F7000F90134978083809153048F5F80935304E9
:100F80004ACF80914B04803909F0DFC142E350E041
:100F900065E070E08DE090E00E948E03E0914904EE
:100FA000F0914A04F0933904E093380480914B04A3
:100FB00080933A044091500440933F0480914E0442
:100FC00080933D04809151048093400480914F04AC
:100FD00080933E0480914C0480933B0480914D04A7
:100FE00080933C04808190E0A0E0B0E0382F22277D
:100FF00011270027818190E0A0E0B0E0DC01992773
:101000008827800F911FA21FB31F2381820F911D7C
:10101000A11DB11D228130E0322F2227820F931FA4
:10102000A11DB11D8093410490934204A0934304F9
:10103000B0934404848190E0A0E0B0E0382F2227F0
:1010400011270027858190E0A0E0B0E0DC0199271E
:101050008827800F911FA21FB31F2781820F911D28
:10106000A11DB11D268130E0322F2227820F931F50
:10107000A11DB11D8093450490934604A09347049D
:10108000B0934804442309F460C18DB69EB687E24C
:1010900092E00E94D70380914F0490E09C012B5076
:1010A0003109220F331FEDB7FEB7E21BF30B0FB66A
:1010B000F894FEBF0FBEEDBF0DB71EB70F5F1F4FF9
:1010C0004091490450914A04FA013B96D8019F018E
:1010D000241B350B281739072CF4219130E02D9370
:1010E0003D93F5CF8AE792E00E94E3038EE792E01A
:1010F0000E94E303D801FC908F2D0E946F01F092B3
:101100008D03F801F2808F2D0E946F01F0928E0303
:10111000D8011496FC908F2D0E946F01F0928F03DE
:101120000E94D30389E892E00E94E3038DE892E0F5
:101130000E94E303F80166817781072E000C880B7B
:10114000990B40E10E94E5030E94D303D801169653
:101150008D919C911797009709F07AC08DE992E0E4
:101160000E94E30381EA92E00E94E303F8017084A5
:10117000612C62857385660D771D6B01770FEE0814
:10118000FF08F7FE0CC08DE20E946F0166277727EB
:10119000CB016C197D098E099F094AE003C04AE022
:1011A000C701B6010E94E5030E94D30381EB92E0E0
:1011B0000E94E30385E593E00E94D703FE01319688
:1011C000045F1F4F950180E090E0DC01AA0FBB1F78
:1011D000A00FB11F4C91D9014D939D010196843010
:1011E000910599F789899A89AB89BC8981939193F3
:1011F000A193B193085F1F4FEA15FB0519F785EB23
:1012000092E00E94E30369817A818B819C810E9434
:10121000260485EC92E00E94E3036D817E818F813C
:1012200098850E94260486EE92E00E94E303698579
:101230007A858B859C850E94260487EF92E00E9428
:10124000E3036D857E858F8598890E94260474C08E
:10125000019709F071C08DE992E00E94E30388E1F3
:1012600093E00E94E303F8013696A2E8B3E0C801D8
:101270004C96208132962D93E817F907D1F782E832
:1012800093E00E94D70389E293E00E94E303F80110
:10129000348C212C868D978D820D931D9093810324
:1012A000809380030E94EB048CE393E00E94E303AD
:1012B000D8019096BC91BE8B1D8AF80182A193A1A2
:1012C0002D893E89820F931F90937F0380937E0325
:1012D0000E94EB0482E593E00E94E303780134E28C
:1012E000E30EF11C80E6C82E83E0D82E005A1F4F73
:1012F000D7016C91B2E0EB0EF11CF60161936F0126
:1013000070E080E090E04AE00E94E503E016F1061C
:1013100079F7209180033091810380917E03909131
:101320007F032817390741F444EF51E06AE070E089
:101330008DE090E00E948E0387E292E00E94D70346
:101340000FB6F8949EBE0FBE8DBE0E94430359CDCA
:1013500010925304109252041092550410925004AB
:101360001092510410924E0410924B0410924C04AF
:1013700010924D0410924F044CCD5058BB27AA2711
:101380000E94D5090C94D60A0E94C80A38F00E941F
:10139000CF0A20F039F49F3F19F426F40C94C50AC3
:1013A0000EF4E095E7FB0C94BF0AE92F0E94E70AD0
:1013B00058F3BA17620773078407950720F079F48A
:1013C000A6F50C94090B0EF4E0950B2EBA2FA02D68
:1013D0000B01B90190010C01CA01A0011124FF27E2
:1013E000591B99F0593F50F4503E68F11A16F040DD
:1013F000A22F232F342F4427585FF3CF46953795DC
:101400002795A795F0405395C9F77EF41F16BA0BA0
:10141000620B730B840BBAF09150A1F0FF0FBB1F4E
:10142000661F771F881FC2F70EC0BA0F621F731F97
:10143000841F48F4879577956795B795F7959E3FF4
:1014400008F0B0CF9395880F08F09927EE0F979585
:10145000879508950E949B0A08F481E008950E94F0
:10146000EF0A88F09F5798F0B92F9927B751B0F03D
:10147000E1F0660F771F881F991F1AF0BA95C9F718
:1014800014C0B13091F00E94090BB1E008950C94A2
:10149000090B672F782F8827B85F39F0B93FCCF355
:1014A000869577956795B395D9F73EF49095809595
:1014B000709561957F4F8F4F9F4F0895E89409C0B5
:1014C00097FB3EF490958095709561957F4F8F4F77
:1014D0009F4F9923A9F0F92F96E9BB279395F6958D
:1014E000879577956795B795F111F8CFFAF4BB0F0B
:1014F00011F460FF1BC06F5F7F4F8F4F9F4F16C06F
:10150000882311F096E911C0772321F09EE8872FF8
:10151000762F05C0662371F096E8862F70E060E0B4
:101520002AF09A95660F771F881FDAF7880F96952D
:10153000879597F90895990F0008550FAA0BE0E8D1
:10154000FEEF16161706E807F907C0F01216130685
:10155000E407F50798F0621B730B840B950B39F4C5
:101560000A2661F0232B242B252B21F408950A262B
:1015700009F4A140A6958FEF811D811D089597F96B
:101580009F6780E870E060E008959FEF80EC089529
:1015900000240A9416161706180609060895002452
:1015A0000A9412161306140605060895092E0394CC
:1015B000000C11F4882352F0BB0F40F4BF2B11F440
:1015C00060FF04C06F5F7F4F8F4F9F4F089557FD9F
:1015D0009058440F551F59F05F3F71F04795880FA1
:1015E00097FB991F61F09F3F79F087950895121638
:1015F00013061406551FF2CF4695F1DF08C01616E4
:1016000017061806991FF1CF869571056105089494
:101610000895E894BB2766277727CB0197F90895AB
:101620000E949B0A08F48FEF08950E94280B0C94E7
:10163000D60A0E94C80A38F00E94CF0A20F09523EB
:1016400011F00C94BF0A0C94C50A11240C940A0BD7
:101650000E94E70A70F3959FC1F3950F50E0551F64
:10166000629FF001729FBB27F00DB11D639FAA27F7
:10167000F00DB11DAA1F649F6627B00DA11D661F46
:10168000829F2227B00DA11D621F739FB00DA11D67
:10169000621F839FA00D611D221F749F3327A00D21
:1016A000611D231F849F600D211D822F762F6A2FBD
:1016B00011249F5750409AF0F1F088234AF0EE0F22
:1016C000FF1FBB1F661F771F881F91505040A9F74F
:1016D0009E3F510580F00C94BF0A0C940A0B5F3FAB
:1016E000E4F3983ED4F3869577956795B795F7958B
:1016F000E7959F5FC1F7FE2B880F911D9695879503
:1017000097F908950E949B0A880B990B0895A1E20E
:101710001A2EAA1BBB1BFD010DC0AA1FBB1FEE1F6B
:10172000FF1FA217B307E407F50720F0A21BB30BB6
:10173000E40BF50B661F771F881F991F1A9469F732
:1017400060957095809590959B01AC01BD01CF018E
:101750000895EE0FFF1F881F8BBF0790F691E02DB5
:10176000199481E090E0F8940C94B60BF894FFCFB4
:1017700000000000DA025602A30281029502210352
:10178000000000007C038C030D0A006E616E00698E
:101790006E66006F7666003E2D2D2D2D2D2D2D2D84
:1017A0002D2D2D2D2D2D2D2D2D2D2D2D2D2D2D2D69
:1017B0002D2D2D2D2D2D2D2D2D2D2D2D2D2D2D2D59
:1017C0002D2D2D2D2D2D2D2D2D2D2D2D2D2D2D2D49
:1017D0002D2D2D2D2D2D2D2D2D2D2D2D2D2D2D2D39
:1017E0002D2D2D2D2D2D2D2D3C003129200049444E
:1017F00020544F54454D3A200032292000436F6455
:101800006520666F6E6374696F6E3A20003329201D
:10181000004E756D65726F207061717565743A2048
:10182000003429200009204E697665617520286DF5
:101830006D293A2000092054656D706572617475D8
:101840007265206427616972202864656772656526
:101850002043293A2000092048756D696469746540
:10186000202825293A2000092054656D7065726191
:1018700074757265206427656175202864656772D8
:1018800065652043293A20004E6F6D206465206C09
:1018900027696D6167653A20003429204EC2B02067
:1018A0006465207061717565743A20003529204E99
:1018B0006F6D627265206465207061717565743A40
:1018C0002000362920446F6E6E6565733A20000053
:00000001FF
