:100000000C943C010C946D010C946D010C946D01E9
:100010000C946D010C946D010C946D010C946D01A8
:100020000C946D010C946D010C946D010C946D0198
:100030000C946D010C946D010C946D010C946D0188
:100040000C946D010C946D010C946D010C946D0178
:100050000C946D010C946D010C946D010C94E504ED
:100060000C946D010C9459050C942F050C946D01A2
:100070000C946D010C946D010C946D010C946D0148
:100080000C946D010C946D010C946D010C946D0138
:100090000C946D010C946D010C946D010C946D0128
:1000A0000C946D010C946D010C946D010C946D0118
:1000B0000C946D010C946D010C946D010C946D0108
:1000C0000C946D010C946D010C946D010C946D01F8
:1000D0000C946D010C946D010C946D010C946D01E8
:1000E0000C946D01A901AC019B019F01A301E301E7
:1000F000B001B401BA01BE01C201C801CC01D001F6
:10010000E301D601DA01DE010C949F010C94A301F6
:100110000C94B0010C94D6010C94AC010C94E30146
:100120000C9481020C94C8010C94A9010C94DA017E
:100130000C94CC010C949B010C94A7030C94DE014D
:100140000C94D0010C94C2010C94B4010C94BE0127
:100150000C94C0020C948F050C944C030C94BA01BF
:100160000C94CE020C94AC020C9405030C94B703CF
:1001700000002100240027002A002D003000330059
:1001800001010000040107010A010000220025000E
:1001900028002B002E003100340002010000050170
:1001A00008010B01050505050705080808080202F6
:1001B00002020A0A08080404040401010101010101
:1001C00001010303030303030303040707070C0CE4
:1001D0000C0C0C0C0C0C02020202060606060606AB
:1001E00006060B0B0B0B0B0B0B0B01021020200850
:1001F0000810204010204080020102010804020182
:1002000001020408102040808040201008040201F0
:100210008004020180402010080402010804020149
:1002200001020408102040800102040810204080D0
:1002300000000A0B02090C0D0E0807030401000060
:1002400000000000000000000000000000000000AE
:10025000000000000000000000000000121110006B
:10026000000000000000000000000000000000008E
:100270000000000000008F0511241FBECFEFD1E267
:10028000DEBFCDBF00E00CBF13E0A0E0B2E0EAE0CB
:10029000F6E100E00BBF02C007900D92A232B10759
:1002A000D9F724E0A2E2B3E001C01D92AC35B20759
:1002B000E1F711E0CCE3D1E000E006C021970109AD
:1002C000802FFE010E94F60ACB33D10780E0080799
:1002D000A9F70E94E9050C94030B0C940000E0912F
:1002E0002E03F0912F030190F081E02D682F8EE214
:1002F00093E01994362F90E0FC01E05DFD4F4491AE
:10030000FC01E651FE4F2491FC01EC55FE4F949107
:10031000992309F46BC0442309F455C050E0FA0155
:100320003197E231F10508F04EC08827EE58FF4FB3
:100330008F4F0C94F60A809180008F7707C08091D0
:1003400080008F7D03C080918000877F8093800034
:100350003AC084B58F7702C084B58F7D84BD33C029
:100360008091B0008F7703C08091B0008F7D809323
:10037000B00029C0809190008F7707C080919000D5
:100380008F7D03C080919000877F809390001BC079
:100390008091A0008F7707C08091A0008F7D03C05F
:1003A0008091A000877F8093A0000DC080912001E4
:1003B0008F7707C0809120018F7D03C0809120013D
:1003C000877F80932001E92FF0E0EE0FFF1FE657B3
:1003D000FE4FA591B4918FB7F894EC91311103C001
:1003E00020952E2301C02E2B2C938FBF08953FB74D
:1003F000F89480912A0390912B03A0912C03B09143
:100400002D0326B5A89B05C02F3F19F00196A11D0D
:10041000B11D3FBFBA2FA92F982F8827820F911D9A
:10042000A11DB11DBC01CD0142E0660F771F881FE1
:10043000991F4A95D1F708958F929F92AF92BF92DC
:10044000CF92DF92EF92FF926B017C010E94F70145
:100450004B015C01C114D104E104F104F1F00E94EC
:10046000F701DC01CB0188199909AA09BB09883E6B
:100470009340A105B10570F321E0C21AD108E1084B
:10048000F10888EE880E83E0981EA11CB11CC114EF
:10049000D104E104F10419F7DDCFFF90EF90DF9074
:1004A000CF90BF90AF909F908F900895FF920F9341
:1004B0001F93CF93DF93F82E8B01C0E0D0E0C017DD
:1004C000D107CCF461E08F2D0E947A0162E370E0E5
:1004D00080E090E00E941C0260E08F2D0E947A0173
:1004E0002196C017D1075CF762E370E080E090E0EE
:1004F0000E941C02E4CFDF91CF911F910F91FF90DA
:100500000895CF92DF92EF92FF920F931F93CF93B4
:10051000DF936C017A018B01C0E0D0E0CE15DF05DE
:1005200089F0D8016D918D01D601ED91FC9101907A
:10053000F081E02DC6011995892B11F47E0102C0CE
:100540002196ECCFC701DF91CF911F910F91FF90C2
:10055000EF90DF90CF900895FC01918D828D9817D8
:1005600061F0828DDF01A80FB11D5D968C91928D97
:100570009F5F9F73928F90E008958FEF9FEF089594
:10058000FC01918D828D981731F0828DE80FF11D5D
:10059000858D90E008958FEF9FEF0895FC01918D78
:1005A000228D892F90E0805C9F4F821B91098F7371
:1005B000992708958EE293E00E94CE0221E0892BD4
:1005C00009F420E0822F0895FC01848DDF01A80F3B
:1005D000B11DA35ABF4F2C91848D90E001968F736B
:1005E0009927848FA689B7892C93A089B1898C918A
:1005F00080648C93938D848D981306C00288F38950
:10060000E02D80818F7D80830895EF92FF920F937C
:100610001F93CF93DF93EC0181E0888F9B8D8C8DAE
:10062000981305C0E889F989808185FD24C0F62EDC
:100630000B8D10E00F5F1F4F0F731127E02E8C8D75
:10064000E8120CC00FB607FCFACFE889F98980815F
:1006500085FFF5CFCE010E94E402F1CF8B8DFE0124
:10066000E80FF11DE35AFF4FF0820B8FEA89FB89F7
:100670008081806207C0EE89FF896083E889F989FB
:1006800080818064808381E090E0DF91CF911F9131
:100690000F91FF90EF900895CF93DF93EC01888D39
:1006A0008823C9F0EA89FB89808185FD05C0A88976
:1006B000B9898C9186FD0FC00FB607FCF5CF8081FC
:1006C00085FFF2CFA889B9898C9185FFEDCFCE0146
:1006D0000E94E402E7CFDF91CF91089580E090E09F
:1006E000892B21F00E94DA02811125C080E090E080
:1006F000892B41F080E090E0892B21F00E940000DE
:1007000081111CC080E090E0892B41F080E090E0F6
:10071000892B21F00E940000811113C080E090E03D
:10072000892BA1F080E090E0892B81F00E940000ED
:1007300081110AC008950E940000D8CF0E940000D5
:10074000E1CF0E940000EACF0C9400000895CF93FF
:10075000DC011696CC911697ED91FC910280F38105
:10076000E02D1995C150C81B8C2FCF9108958BE0B7
:100770000895009769F0FC0101900020E9F7319796
:10078000AF01481B590BBC018EE293E00C9481022F
:1007900080E090E0089588E192E00C94B903CF9353
:1007A000DF930E94B903EC010E94CB038C0F9D1FC5
:1007B000DF91CF9108950C94B9038F929F92AF92DD
:1007C000BF920F931F93CF93DF93CDB7DEB7A1975F
:1007D0000FB6F894DEBF0FBECDBF19A2423008F4A9
:1007E0004AE08E010F5D1F4F842E912CA12CB12C5D
:1007F000A50194010E94D40AE62FB901CA01015053
:100800001109EA3014F4E05D01C0E95CD801EC9311
:10081000232B242B252B61F7C8010E94B903A19635
:100820000FB6F894DEBF0FBECDBFDF91CF911F9101
:100830000F91BF90AF909F908F9008954F925F92CD
:100840006F927F928F929F92AF92BF92CF92DF92E0
:10085000EF92FF926B017C019B01AC010E94CF0AD9
:10086000882319F08BE192E01AC046015701E89401
:10087000B7F82FEF3FEF4FE75FE7C501B4010E94E4
:10088000CF0A811110C02FEF3FEF4FE75FE7C5019F
:10089000B4010E947709181634F48FE192E00E94A7
:1008A000B9037C017FC02FEF3FEF4FE75FE4C70143
:1008B000B6010E945D0A18161CF483E292E0EFCFA5
:1008C0002FEF3FEF4FE75FECC701B6010E947709BA
:1008D00087FDF3CF20E030E0A901C701B6010E94F7
:1008E000770987FF09C08DE20E946F015C01F7FA6A
:1008F000F094F7F8F09402C0A12CB12C2AE037ED67
:1009000043EA5BE3C701B6010E940B092B013C01DE
:100910000E947C096B017C010E94AB099B01AC0128
:10092000C301B2010E940A092B013C014AE0C70140
:10093000B6010E94DD037C01EA0CFB1C8EE20E94E2
:100940006F01E80EF91E20E030E040E251E4C301FF
:10095000B2010E94620A2B013C010E947C094B01FA
:10096000A12CB12C4AE0C501B4010E94DD03E80EC0
:10097000F91EC501B4010E94AB099B01AC01C30182
:10098000B2010E940A0920E030E040E251E40E94F6
:10099000620A0E947C0980E090E04AE00E94DD0348
:1009A000E80EF91E0E94CB038E0D9F1DFF90EF9065
:1009B000DF90CF90BF90AF909F908F907F906F907F
:1009C0005F904F9008950E94FE0A1F920F920FB6FB
:1009D0000F9211242F933F938F939F93AF93BF93C5
:1009E0008091260390912703A0912803B0912903B9
:1009F0003091250323E0230F2D3720F40196A11D0C
:100A0000B11D05C026E8230F0296A11DB11D20933C
:100A100025038093260390932703A0932803B09384
:100A2000290380912A0390912B03A0912C03B0916C
:100A30002D030196A11DB11D80932A0390932B03D2
:100A4000A0932C03B0932D03BF91AF919F918F91F1
:100A50003F912F910F900FBE0F901F9018951F92EE
:100A60000F920FB60F9211240BB60F922F933F9354
:100A70004F935F936F937F938F939F93AF93BF93A6
:100A8000EF93FF938EE293E00E94E402FF91EF91D7
:100A9000BF91AF919F918F917F916F915F914F9196
:100AA0003F912F910F900BBE0F900FBE0F901F9094
:100AB00018951F920F920FB60F9211240BB60F923A
:100AC0002F938F939F93EF93FF93E0913E03F091C9
:100AD0003F038081E0914403F091450382FD12C001
:100AE0009081809147038F5F8F7320914803821715
:100AF00051F0E0914703F0E0E25DFC4F958F809369
:100B0000470301C08081FF91EF919F918F912F91B9
:100B10000F900BBE0F900FBE0F901F901895EEE236
:100B2000F3E01382128288EE93E0A0E0B0E08483C9
:100B30009583A683B78384E092E09183808385ECDC
:100B400090E09587848784EC90E09787868780EC97
:100B500090E0918B808B81EC90E0938B828B82EC88
:100B600090E0958B848B86EC90E0978B868B118E32
:100B7000128E138E148EAEEDB3E01A961C921A9755
:100B800019961C9219971C961C921C971D961C92E4
:100B90001D9717961C92179718961C9218971596E2
:100BA0001C9215978CEE93E08D939C93F0935B04CD
:100BB000E0935A04EBECF3E084E192E091838083CC
:100BC00013861486158616861786108A118A128A4D
:100BD0000895CF93DF93CDB7DEB764970FB6F8943F
:100BE000DEBF0FBECDBF789484B5826084BD84B56E
:100BF000816084BD85B5826085BD85B5816085BD18
:100C000080916E00816080936E00109281008091CF
:100C10008100826080938100809181008160809357
:100C20008100809180008160809380008091B1007C
:100C300084608093B1008091B00081608093B000A7
:100C400080919100826080939100809191008160F9
:100C500080939100809190008160809390008091BA
:100C6000A10082608093A1008091A10081608093A7
:100C7000A1008091A00081608093A000809121015B
:100C80008260809321018091210181608093210104
:100C90008091200181608093200180917A0084609E
:100CA00080937A0080917A00826080937A008091AC
:100CB0007A00816080937A0080917A0080688093C6
:100CC0007A001092C100E7EFF1E02491E1EBF1E04E
:100CD0008491882399F090E0880F991FFC01E059D6
:100CE000FE4FA591B491FC01E657FE4F859194917A
:100CF0008FB7F894EC91E22BEC938FBFE0913E0319
:100D0000F0913F0382E08083E0913A03F0913B034E
:100D10001082E0913C03F0913D038FEC80831092B0
:100D20004603E0914203F091430386E08083E09123
:100D30004003F0914103808180618083E091400312
:100D4000F0914103808188608083E0914003F091BD
:100D50004103808180688083E0914003F0914103EA
:100D600080818F7D80838EE293E090935B048093FB
:100D70005A0463E070E08DE090E00E94560282E049
:100D8000782EFF24F39493E0E92E5E0141E1A40E56
:100D9000B11C8091E503811128C28091E603811185
:100DA00024C204E010E280915A0490915B04DC01BB
:100DB000ED91FC910480F581E02D1995892B09F4C2
:100DC000A6C080915A0490915B04DC01ED91FC91E6
:100DD0000680F781E02D19958093E9039091E8034F
:100DE000992331F18E3719F4E092E60390C08D37E4
:100DF000F9F480915A0490915B04DC01ED91FC912F
:100E00000480F581E02D1995892B79F080915A04A1
:100E100090915B04DC01ED91FC910680F781E02D5F
:100E2000199581278093E90303C0F092E703BBCFB4
:100E30008091E703882339F08091E903812780932B
:100E4000E9031092E7038091E803833038F02091A2
:100E5000E9039091EA03920F9093EA038130A1F0A5
:100E600058F08230C1F08330E9F48091E903809337
:100E7000E0030093E80397CF8091E9038E3709F0F0
:100E800092CFF092E8038FCF8091E9038093E10342
:100E90007092E80388CF8091E9038093E203E092A7
:100EA000E80381CF8F3618F07092E60330C0282F08
:100EB00030E04091E20350E04D5F5F4F241735076B
:100EC000A9F49091EA039F3F49F49091E90390932C
:100ED000E303F092E5031092E60302C0F092E6030A
:100EE00084508093E4031092E80311C08091E903D9
:100EF000E091DE03F091DF032E0F3F1FF9013497DD
:100F000080838091E8038F5F8093E8034CCF8091CA
:100F1000E003803909F066C165E070E08DE090E0A3
:100F20000E945602E091DE03F091DF03F093CE03BE
:100F3000E093CD038091E0038093CF032091E503FC
:100F40002093D4038091E3038093D2038091E6033E
:100F50008093D5038091E4038093D3038091E103D0
:100F60008093D0038091E2038093D103808190E04D
:100F7000A0E0B0E0782F6627552744279181892F7C
:100F800090E0A0E0B0E0DC0199278827840F951F4E
:100F9000A61FB71F3381830F911DA11DB11D428173
:100FA00050E0542F4427840F951FA11DB11D80933D
:100FB000D6039093D703A093D803B093D903848129
:100FC00090E0A0E0B0E0782F662755274427958170
:100FD000892F90E0A0E0B0E0DC0199278827840FFA
:100FE000951FA61FB71F3781830F911DA11DB11D2E
:100FF000468150E0542F4427840F951FA11DB11D39
:101000008093DA039093DB03A093DC03B093DD03BA
:10101000222309F4E7C08DB69EB687E292E00E94D3
:10102000CF038091E40390E09C012B503109220F03
:10103000331FEDB7FEB7E21BF30B0FB6F894FEBFFC
:101040000FBEEDBF0DB71EB70F5F1F4F4091DE0300
:101050005091DF03FA013B96D8019F01241B350B09
:10106000281739072CF4219130E02D933D93F5CFCB
:101070008AE792E00E94DB038EE792E00E94DB03A6
:10108000D8015C90852D0E946F0150922203F801D7
:101090005280852D0E946F0150922303D80114962F
:1010A0005C90852D0E946F01509224030E94CB0317
:1010B00089E892E00E94DB038DE892E00E94DB0366
:1010C000F80166817781072E000C880B990B40E1AF
:1010D0000E94DD030E94CB038DE992E00E94DB03B6
:1010E00081EA92E00E94DB03D8011896DC90189701
:1010F000C12C1A962D903C901B972C0C3D1C032C58
:10110000000C4408550857FE0CC08DE20E946F0188
:1011100066277727CB0162197309840995094AE08C
:1011200003C04AE0C201B1010E94DD030E94CB036B
:1011300081EB92E00E94DB0385EB92E00E94CF03FB
:10114000FE013196045F1F4F950180E090E0DC01C5
:10115000AA0FBB1FA00FB11F4C91D9014D939D0148
:1011600001968430910599F789899A89AB89BC8960
:1011700081939193A193B193085F1F4FEA15FB05EB
:1011800019F78FEB92E00E94DB0369817A818B81F2
:101190009C810E941E048FEC92E00E94DB036D8113
:1011A0007E818F8198850E941E0480EF92E00E94CC
:1011B000DB0369857A858B859C850E941E0481E00E
:1011C00093E00E94DB036D857E858F8598890E9460
:1011D0001E0487E292E00E94CF030FB6F8949EBEF1
:1011E0000FBE8DBE0E946E03D4CD1092E803109204
:1011F000E7031092EA031092E5031092E6031092BF
:10120000E3031092E0031092E1031092E2031092C4
:10121000E403C7CD5058BB27AA270E9422090C948B
:10122000230A0E94150A38F00E941C0A20F039F4A3
:101230009F3F19F426F40C94120A0EF4E095E7FB94
:101240000C940C0AE92F0E94340A58F3BA1762076B
:1012500073078407950720F079F4A6F50C94560AD5
:101260000EF4E0950B2EBA2FA02D0B01B9019001C1
:101270000C01CA01A0011124FF27591B99F0593F05
:1012800050F4503E68F11A16F040A22F232F342F4D
:101290004427585FF3CF469537952795A795F0409B
:1012A0005395C9F77EF41F16BA0B620B730B840BB0
:1012B000BAF09150A1F0FF0FBB1F661F771F881F68
:1012C000C2F70EC0BA0F621F731F841F48F48795C0
:1012D00077956795B795F7959E3F08F0B0CF9395B2
:1012E000880F08F09927EE0F9795879508950E942B
:1012F000E80908F481E008950E943C0A88F09F57AD
:1013000098F0B92F9927B751B0F0E1F0660F771F29
:10131000881F991F1AF0BA95C9F714C0B13091F01F
:101320000E94560AB1E008950C94560A672F782F50
:101330008827B85F39F0B93FCCF3869577956795E4
:10134000B395D9F73EF490958095709561957F4F50
:101350008F4F9F4F0895E89409C097FB3EF49095F6
:101360008095709561957F4F8F4F9F4F9923A9F07E
:10137000F92F96E9BB279395F6958795779567950D
:10138000B795F111F8CFFAF4BB0F11F460FF1BC051
:101390006F5F7F4F8F4F9F4F16C0882311F096E9E4
:1013A00011C0772321F09EE8872F762F05C0662392
:1013B00071F096E8862F70E060E02AF09A95660F4B
:1013C000771F881FDAF7880F9695879597F9089504
:1013D000990F0008550FAA0BE0E8FEEF1616170646
:1013E000E807F907C0F012161306E407F50798F0AE
:1013F000621B730B840B950B39F40A2661F0232BC7
:10140000242B252B21F408950A2609F4A140A69542
:101410008FEF811D811D089597F99F6780E870E027
:1014200060E008959FEF80EC089500240A9416165A
:10143000170618060906089500240A9412161306C2
:10144000140605060895092E0394000C11F4882350
:1014500052F0BB0F40F4BF2B11F460FF04C06F5F6C
:101460007F4F8F4F9F4F089557FD9058440F551F42
:1014700059F05F3F71F04795880F97FB991F61F016
:101480009F3F79F087950895121613061406551F8D
:10149000F2CF4695F1DF08C0161617061806991FF9
:1014A000F1CF86957105610508940895E894BB27EE
:1014B00066277727CB0197F908950E94E80908F479
:1014C0008FEF08950E94750A0C94230A0E94150A52
:1014D00038F00E941C0A20F0952311F00C940C0A9D
:1014E0000C94120A11240C94570A0E94340A70F3C7
:1014F000959FC1F3950F50E0551F629FF001729FB9
:10150000BB27F00DB11D639FAA27F00DB11DAA1FC7
:10151000649F6627B00DA11D661F829F2227B00D14
:10152000A11D621F739FB00DA11D621F839FA00D9F
:10153000611D221F749F3327A00D611D231F849FEF
:10154000600D211D822F762F6A2F11249F57504046
:101550009AF0F1F088234AF0EE0FFF1FBB1F661FC1
:10156000771F881F91505040A9F79E3F510580F08A
:101570000C940C0A0C94570A5F3FE4F3983ED4F3A2
:10158000869577956795B795F795E7959F5FC1F72E
:10159000FE2B880F911D9695879597F908950E94C7
:1015A000E809880B990B0895A1E21A2EAA1BBB1B10
:1015B000FD010DC0AA1FBB1FEE1FFF1FA217B3071F
:1015C000E407F50720F0A21BB30BE40BF50B661F35
:1015D000771F881F991F1A9469F7609570958095F9
:1015E00090959B01AC01BD01CF010895EE0FFF1F47
:1015F000881F8BBF0790F691E02D199481E090E051
:0A160000F8940C94030BF894FFCF4C
:10160A000000000005038102CE02AC02C0024C03B6
:10161A0000000000A703B7030D0A006E616E00699F
:10162A006E66006F7666003E2D2D2D2D2D2D2D2DEB
:10163A002D2D2D2D2D2D2D2D2D2D2D2D2D2D2D2DD0
:10164A002D2D2D2D2D2D2D2D2D2D2D2D2D2D2D2DC0
:10165A002D2D2D2D2D2D2D2D2D2D2D2D2D2D2D2DB0
:10166A002D2D2D2D2D2D2D2D2D2D2D2D2D2D2D2DA0
:10167A002D2D2D2D2D2D2D2D3C00312920004944B5
:10168A0020544F54454D3A200032292000436F64BC
:10169A006520666F6E6374696F6E3A200033292085
:1016AA00004E756D65726F207061717565743A20B0
:1016BA000034292000446F6E6E6565733A20000974
:1016CA00204E697665617520286D6D293A200009DA
:1016DA002054656D70657261747572652064276146
:1016EA00697220286465677265652043293A20007B
:1016FA00092048756D6964697465202825293A208E
:10170A0000092054656D7065726174757265206494
:10171A002765617520286465677265652043293AE3
:02172A0020009D
:00000001FF
