:100000000C94CD010C94FE010C94FE010C94FE01A5
:100010000C94FE010C94FE010C94FE010C94FE0164
:100020000C94FE010C94FE010C94FE010C94FE0154
:100030000C94FE010C94FE010C94FE010C94FE0144
:100040000C94FE010C94FE010C94FE010C94FE0134
:100050000C94FE010C94FE010C94FE010C94CA0356
:100060000C94FE010C943E040C9414040C94FE01B8
:100070000C94FE010C94FE010C94FE010C94FE0104
:100080000C94FE010C94FE010C94FE010C94FE01F4
:100090000C94FE010C94FE010C94FE010C94FE01E4
:1000A0000C94FE010C94FE010C94FE010C94FE01D4
:1000B0000C94FE010C94FE010C94FE010C94FE01C4
:1000C0000C94FE010C94FE010C94FE010C94FE01B4
:1000D0000C94FE010C94FE010C94FE010C94FE01A4
:1000E0000C94FE015F0B620B510B550B590B990BD6
:1000F000660B6A0B700B740B780B7E0B820B860BF6
:10010000990B8C0B900B940B0C945F0B0C94700B55
:100110000C94620B0C94900B0C94740B0C94840252
:100120000C9463030C94990B0C942A030C94CB024B
:100130000C942B020C94550B0C9479050C94000232
:100140000C944C0F0C9426030C944D020C94660BEB
:100150000C946A0B0C94510B0C94820B0C947E0B38
:100160000C943F020C948C0B0C94590B0C94780B50
:100170000C94860B0C94940B005EBCE2613FDD8313
:10018000C29C7E20A3FD1F419DC3217FFCA2401E77
:100190005F01E3BD3E6082DC237D9FC1421CFEA067
:1001A000E1BF5D0380DE3C62BEE0025CDF81633D57
:1001B0007C22C09E1D43A1FF4618FAA427799BC547
:1001C00084DA3866E5BB5907DB856739BAE4065837
:1001D0001947A5FB7826C49A653BD987045AB8E627
:1001E000A7F91B45C6987A24F8A6441A99C7257B17
:1001F0003A6486D85B05E7B98CD2306EEDB3510F07
:100200004E10F2AC2F7193CD114FADF3702ECC92F6
:10021000D38D6F31B2EC0E50AFF1134DCE90722CE6
:100220006D33D18F0C52B0EE326C8ED0530DEFB1D6
:10023000F0AE4C1291CF2D73CA947628ABF51749C6
:100240000856B4EA6937D58B5709EBB536688AD4B6
:1002500095CB2977F4AA4816E9B7550B88D6346AA6
:100260002B7597C94A14F6A8742AC896154BA9F796
:10027000B6E80A54D7896B35000021002400270016
:100280002A002D00300033000101000004010701A5
:100290000A0100002200250028002B002E0031005A
:1002A000340002010000050108010B0100000A0BE7
:1002B00002090C0D0E0807030401000000000000F5
:1002C000000000000000000000000000000000002E
:1002D00000000000000000001211100000000000EB
:1002E000000000000000000000000000000000000E
:1002F0000000000020002300260029002C002F0011
:100300003200000100000301060109010505050591
:10031000070508080808020202020A0A080804047D
:1003200004040101010101010101030303030303AB
:100330000303040707070C0C0C0C0C0C0C0C02023A
:10034000020206060606060606060B0B0B0B0B0B37
:100350000B0B0102102020080810204010204080C4
:100360000201020108040201010204081020408079
:100370008040201008040201800402018040201007
:100380000804020108040201010204081020408050
:1003900001020408102040804C0F11241FBECFEF33
:1003A000D1E2DEBFCDBF00E00CBF12E0A0E0B2E0C2
:1003B000E4E8F4E200E00BBF02C007900D92A63221
:1003C000B107D9F724E0A6E2B2E001C01D92A53939
:1003D000B207E1F711E0CDECD1E000E006C02197D3
:1003E0000109802FFE010E941F12CC3CD10780E042
:1003F0000807A9F70E945F0D0C9440120C940000AE
:10040000CF92DF92EF92FF920F931F93CF93DF93E0
:100410006C017A018B01C0E0D0E0CE15DF0589F0D8
:10042000D8016D918D01D601ED91FC910190F08183
:10043000E02DC6011995892B11F47E0102C0219689
:10044000ECCFC701DF91CF911F910F91FF90EF90FB
:10045000DF90CF900895FC01918D828D981761F007
:10046000828DDF01A80FB11D5D968C91928D9F5FEB
:100470009F73928F90E008958FEF9FEF0895FC0196
:10048000918D828D981731F0828DE80FF11D858D49
:1004900090E008958FEF9FEF0895FC01918D228DDC
:1004A000892F90E0805C9F4F821B91098F73992761
:1004B00008958AE692E00E944D0221E0892B09F41A
:1004C00020E0822F0895FC01848DDF01A80FB11D6B
:1004D000A35ABF4F2C91848D90E001968F7399277A
:1004E000848FA689B7892C93A089B1898C91806467
:1004F0008C93938D848D981306C00288F389E02D28
:1005000080818F7D80830895EF92FF920F931F93D8
:10051000CF93DF93EC0181E0888F9B8D8C8D9813B6
:1005200005C0E889F989808185FD24C0F62E0B8DF0
:1005300010E00F5F1F4F0F731127E02E8C8DE81214
:100540000CC00FB607FCFACFE889F989808185FFD6
:10055000F5CFCE010E946302F1CF8B8DFE01E80F33
:10056000F11DE35AFF4FF0820B8FEA89FB898081EE
:10057000806207C0EE89FF896083E889F9898081FC
:100580008064808381E090E0DF91CF911F910F9193
:10059000FF90EF900895CF93DF93EC01888D88232F
:1005A000C9F0EA89FB89808185FD05C0A889B989E0
:1005B0008C9186FD0FC00FB607FCF5CF808185FFBB
:1005C000F2CFA889B9898C9185FFEDCFCE010E9429
:1005D0006302E7CFDF91CF91089580E090E0892B0F
:1005E00021F00E945902811125C080E090E0892B02
:1005F00041F080E090E0892B21F00E940000811101
:100600001CC080E090E0892B41F080E090E0892BD5
:1006100021F00E940000811113C080E090E0892B3E
:10062000A1F080E090E0892B81F00E940000811110
:100630000AC008950E940000D8CF0E940000E1CFB8
:100640000E940000EACF0C9400000895FC0186810E
:10065000845F0895FC01611102C0828508956130B4
:1006600011F481850895623011F480850895633016
:1006700011F487810895643011F4868508956530FA
:1006800011F485850895663011F4848508956730E6
:1006900011F483850895683011F4808908956930D4
:1006A00011F4878508956A3011F4818908956B30BB
:1006B00011F4828908950480F581E02DE60FF11D83
:1006C0003C97808108950895BF92CF92DF92EF9278
:1006D000FF920F931F93CF93DF93B82E8B01C0E04F
:1006E000D0E06A01550FEE08FF08C017D107ACF43F
:1006F00061E08B2D0E94300BC701B6010E94E90B0F
:1007000060E08B2D0E94300B2196C017D1076CF74B
:10071000C701B6010E94E90BE8CFDF91CF911F918D
:100720000F91FF90EF90DF90CF90BF9008950E94BF
:100730003B123FB7F8948091660290916702A091B6
:100740006802B091690226B5A89B05C02F3F19F039
:100750000196A11DB11D3FBFBA2FA92F982F882741
:10076000820F911DA11DB11DBC01CD0142E0660F9C
:10077000771F881F991F4A95D1F708952FB7F894CE
:1007800060916202709163028091640290916502AF
:100790002FBF08951F920F920FB60F9211242F931F
:1007A0003F938F939F93AF93BF93809162029091F9
:1007B0006302A0916402B09165023091610223E06E
:1007C000230F2D3720F40196A11DB11D05C026E889
:1007D000230F0296A11DB11D209361028093620236
:1007E00090936302A0936402B093650280916602C5
:1007F00090916702A0916802B09169020196A11DD3
:10080000B11D8093660290936702A0936802B09333
:100810006902BF91AF919F918F913F912F910F905E
:100820000FBE0F901F9018951F920F920FB60F9248
:1008300011240BB60F922F933F934F935F936F93B7
:100840007F938F939F93AF93BF93EF93FF938AE62A
:1008500092E00E946302FF91EF91BF91AF919F914F
:100860008F917F916F915F914F913F912F910F9059
:100870000BBE0F900FBE0F901F9018951F920F92F6
:100880000FB60F9211240BB60F922F938F939F9355
:10089000EF93FF93E0917A02F0917B028081E091E7
:1008A0008002F091810282FD12C0908180918302CA
:1008B0008F5F8F7320918402821751F0E091830241
:1008C000F0E0E659FD4F958F8093830201C080814F
:1008D000FF91EF919F918F912F910F900BBE0F90F1
:1008E0000FBE0F901F901895DC01E0E0615038F0CA
:1008F0008D91E827F0E0E858FE4FE491F7CF8E2F76
:100900000895FC0190810180F281E02DF8948181AD
:10091000892B81832281892F809528232283A7E038
:10092000B0E01197F1F7218182238183A3E2B0E047
:100930001197F1F780817894EFECF0E03197F1F7BF
:10094000982381E009F480E00895FC019081018002
:10095000F281E02D892F809560FF12C0F8942281EA
:10096000822382838181892B8183A3E2B0E0119766
:10097000F1F78281982B9283789487ED90E011C0F3
:10098000F8942281822382838181892B8183AFEF36
:10099000B0E01197F1F78281982B928378948FE0E1
:1009A00090E00197F1F70895CF92DF92EF92FF92D6
:1009B0000F931F93CF93DF931F92CDB7DEB76C01D8
:1009C000E62E08E010E0FF24F39461E08F2D8E21E5
:1009D00009F460E0C60149830E94A504FF0C0150A0
:1009E000110949810115110581F7411115C0F894CC
:1009F000D6011196ED91FC91129791818C91809581
:100A0000892381831196ED91FC91129792818C91AB
:100A100080958923828378940F90DF91CF911F91E5
:100A20000F91FF90EF90DF90CF900895CF92DF92DB
:100A3000EF92FF920F931F93CF93DF931F92CDB747
:100A4000DEB78C01F62E40E065E579830E94D40480
:100A5000CF2C7981D72E760188E0E80EF11CF601C3
:100A600061916F0140E0C8010E94D404CE14DF04FC
:100A7000B1F70F90DF91CF911F910F91FF90EF9001
:100A8000DF90CF900895FC0190810180F281E02DEC
:100A9000F8948181292F20958223818378948DE792
:100AA00043E050E0815021F1DA011197F1F73081F4
:100AB0003923C1F3F8948281822382838181892B37
:100AC00081837894ABE7B7E01197F1F7F8948181CF
:100AD00028232183A3E1B1E01197F1F780819823C6
:100AE00081E009F080E07894E3E6F6E03197F1F7F1
:100AF00008954F925F926F927F928F929F92AF92E2
:100B0000BF92CF92DF92EF92FF920F931F93CF93FA
:100B1000DF93CDB7DEB7A8970FB6F894DEBF0FBE50
:100B2000CDBF198A1A8A1B8A1C8A1D8A1E8A1F8AAF
:100B3000188E198E1A8E1B8E1C8E1D8E1E8E1F8E69
:100B400018A25AE0E52EF12C63E2C62ED12C71E8F2
:100B5000A72E73E0B72EEBE38E2EE3E09E2E61E02E
:100B60008EE20E94300BC6010197F1F760E08EE241
:100B70000E94300BF5016491F401249130E0220FC2
:100B8000331F2E503D4FF9018591949108EA11E6EB
:100B900020E030E0462F0E941A0D61157105810595
:100BA000910539F0DC01CB010196A11DB11DBF708B
:100BB00003C080E090E0DC01BC01990F880B990B29
:100BC0000E94121120E030E040E05FE30E949E119D
:100BD0002BE734E14EEA5EE30E949E119B01AC01DB
:100BE00069897A898B899C890E943210698B7A8BFA
:100BF0008B8B9C8BF1E0EF1AF10809F0B0CF9AE0F3
:100C0000E92EF12C8E010F5D1F4F80917904909198
:100C10007A040E94430540E06CEC80917904909145
:100C20007A040E94D4044091740464E480917904AD
:100C300090917A040E94D404809176048823E9F18B
:100C4000E0917504E950E33040F4F0E0EE0FFF1F4F
:100C5000E85FFD4F8080918004C0BEEE8B2EB2E035
:100C60009B2E80917704882311F180917404811167
:100C70001EC00E94BE032B013C01092C000CAA08D7
:100C8000BB088091790490917A040E94810481309C
:100C9000A1F00E94BE03DC01CB0188199909AA09C1
:100CA000BB0984159505A605B70558F306C0B40120
:100CB000990C880B990B0E94E90BE0917904F09153
:100CC0007A04138615861486DF011B96CF010396DE
:100CD0001E92A817B907E1F7B801CF010E94580A80
:100CE000882341F067E0C8010E94740498A5891721
:100CF00009F4C8C220E030E04EEF52EC6D897E89E5
:100D00008F89988D0E9432106D8B7E8B8F8B988F80
:100D100081E0E81AF10809F078CF5AE0A52EB12C4D
:100D20000E94230C8823B1F1809168048B3041F13B
:100D300088F18551823070F56091620470E080E046
:100D400090E00E94101120E030E040E853E40E945F
:100D50009E116B017C0180916304682F70E080E03C
:100D600090E00E9412119B01AC01C701B6010E94E4
:100D700032102DEC3CEC4CEC5DE30E949E1107C060
:100D80006091620470E080E090E00E9410112B01FD
:100D90003C0106C0412C512C40EC642E4FE7742ED0
:100DA0000E94230C882309F440C0809168048B3092
:100DB00029F0D8F18551823058F037C06091640431
:100DC00070E080E090E00E9410116B017C0133C064
:100DD00090906404692D6F7770E080E090E00E944D
:100DE000121120E030E040E853E40E949E116B01B4
:100DF0007C016091650470E080E090E00E94121137
:100E00009B01AC01C701B6010E9432102DEC3CECF5
:100E10004CEC5DE30E949E116B017C0197FE0BC0C0
:100E2000F7FAF094F7F8F09406C0C12CD12C30EC0E
:100E3000E32E3FE7F32EA3019201698D7A8D8B8D0E
:100E40009C8D0E943210698F7A8F8B8F9C8FA701A7
:100E500096016D8D7E8D8F8D98A10E9432106D8FC1
:100E60007E8F8F8F98A391E0A91AB10809F058CF0F
:100E70006E01A1E1CA0ED11CFE0131967F015F0116
:100E8000D6016D917D918D919D916D0120E030E0B5
:100E900040E251E40E949E10F501619371938193A9
:100EA00091935F01C016D10659F710921403109266
:100EB000150380912A028093160386E090E0D70103
:100EC0004D915D916D917D917D01409326025093EE
:100ED00027026093280270932902E6E2F2E0DC0127
:100EE000AF5EBC4F22E0EA32F20719F021912D9358
:100EF000F9CF04968631910511F702E093E0F92EBF
:100F000024E0D22E80E2E82E8EE70E94EB09E091E9
:100F10002703F09128030280F381E02D87E293E01C
:100F20001995182FE0912703F09128030280F3818F
:100F3000E02D87E293E01995C82E212F30E02E5F37
:100F40003F4F61E0832F0E94F80961E082E08C0D41
:100F50000E94F80961E0809129030E94F80961E08C
:100F600080912A030E94F8091091290380912A0395
:100F7000180FA12CB12CE0912703F09128030280D7
:100F8000F381E02D87E293E0199590E0A816B90669
:100F9000F4F4E0912703F09128030190F081E02D13
:100FA0006A2D87E293E0199561E00E94F809E091CB
:100FB0002703F09128030190F081E02D6A2D87E24C
:100FC00093E01995180F4FEFA41AB40AD4CF61E03B
:100FD000812F80950E94F80960ED77E080E090E035
:100FE0000E94E90B0E94BE034B015C0111E00E94CC
:100FF000BE0368197909643F71400CF085CF809178
:10100000EB038111C1C08091EC038111BDC002C00E
:101010001093ED038091600490916104DC01ED91E7
:10102000FC910480F581E02D1995892B09F4A2C06B
:101030008091600490916104DC01ED91FC91068047
:10104000F781E02D19958093EF039091EE0399239A
:1010500011F18E3719F4F092EC038CC08D37D9F46E
:101060008091600490916104DC01ED91FC91048019
:10107000F581E02D1995892B59F2809160049091AA
:101080006104DC01ED91FC910680F781E02D19955A
:101090008E258093EF038091ED03882339F08091B2
:1010A000EF038E258093EF031092ED038091EE0302
:1010B000833038F02091EF039091F003920F9093DA
:1010C000F0038130A1F058F08230C1F08330E9F4B0
:1010D0008091EF038093E603D092EE039BCF809143
:1010E000EF038E3709F096CF1093EE0393CF8091E4
:1010F000EF038093E7030093EE038CCF8091EF031F
:101100008093E803F092EE0385CF8F3618F00093BA
:10111000EC0330C0282F30E04091E80350E04D5FF1
:101120005F4F24173507A9F49091F0039F3F49F4CE
:101130009091EF039093E9031093EB031092EC036B
:1011400002C01093EC0384508093EA031092EE03E4
:1011500011C08091EF03E091E403F091E5032E0FBD
:101160003F1FF901349780838091EE038F5F809356
:10117000EE0350CF8091EB0381111BC08091EC03F3
:10118000882309F434CFC0CE1092EE031092ED0301
:101190001092F0031092EB031092EC031092E9030B
:1011A0001092E6031092E7031092E8031092EA030C
:1011B00031CF8091E6038B38E1F5E091E403F091C3
:1011C000E503F0930803E09307038093090381E0AC
:1011D00080930E038091E90380930C038091EC03CC
:1011E00080930F038091EA0380930D038091E703BE
:1011F00080930A038091E80380930B03848181111B
:1012000013C042E350E065E070E08DE090E00E94A2
:10121000640380912A0290912B02019690932B02F5
:1012200080932A0211E00EC044EF51E063E070E0C9
:1012300004C044EF51E062E070E08DE090E00E9475
:10124000640310E068EE73E080E090E00E94E90B38
:10125000112309F457CEA8960FB6F894DEBF0FBE3F
:10126000CDBFDF91CF911F910F91FF90EF90DF9055
:10127000CF90BF90AF909F908F907F906F905F9036
:101280004F9008958091790490917A040E944305CB
:101290008823E9F1BE016F5F7F4FC8010E940C0AED
:1012A0008823A9F168E0CE0101960E947404998513
:1012B00089132DC0698128E0629FB00111248A81C1
:1012C000282F30E0322F2227330F330F330F262BF6
:1012D000372B89A18031C9F4688570E08F81AB011B
:1012E000481B5109CA019695982F8827979587958D
:1012F0000E940B1260517109207FF3E0220F331F0F
:10130000FA95E1F7620F731F04C0B90102C060E8EB
:1013100074EE613854EE75070CF4ECCC072E000C1B
:10132000880B990B0E94121120E030E040E05CE352
:101330000E949E119B01AC01E1CC8F929F92AF92D3
:10134000BF92CF92DF92EF92FF92CF93DF93A09163
:101350006904882311F03A2F01C030E080916A04BB
:1013600090E0880F991F8E509D4FC0906F04D090D1
:101370007004E0907104F090720440E050E0BA0113
:10138000FC01C591D49128812A2323130FC04A015F
:101390005B012FEF821A920AA20AB20A4C155D0570
:1013A0006E057F0538F4B501A401EACF342F252F4F
:1013B000CB0104C030E020E080E090E0632F722F8A
:1013C000DF91CF91FF90EF90DF90CF90BF90AF90E3
:1013D0009F908F900895A0916004B0916104ED9169
:1013E000FC9111970190F081E02D682FCD011994A7
:1013F000CF93662371F093E8980F923020F0982FE6
:101400009D7F913131F4C82F8DE70E94EB0980E276
:101410008C27CF910C94EB09AF92BF92CF92DF92C1
:10142000EF92FF920F931F93CF93DF938B01BC0139
:101430008091790490917A040E94160540E06EEB49
:101440008091790490917A040E94D404E8016801A3
:1014500089E0C80ED11CA0907904B0907A0488E08D
:10146000E82EF12C01E010E0C5010E9481048111F9
:10147000102B000F81E0E81AF108B1F71993CC1591
:10148000DD0549F78091790490917A040E94430523
:1014900091E0813009F090E0892FDF91CF911F9189
:1014A0000F91FF90EF90DF90CF90BF90AF90089595
:1014B000AF92BF92CF92DF92EF92FF920F931F9362
:1014C000CF93DF931F92CDB7DEB75C01D62EE72E08
:1014D000FC018585811105C0C5010E94430581116C
:1014E00006C0F50113861586148680E065C040E0CD
:1014F00060EFC5010E94D40401E0F12CC12C11E081
:10150000C5010E948104682FC50169830E9481047E
:101510006981613019F48130B9F433C04F2D50E046
:1015200068131BC0F5018385181730F4E40FF51F0D
:101530008381802349F402C0181731F060E019302C
:1015400058F4F501148708C0F501EF0DF11D8381F2
:10155000802B838361E009C0C12EF501E40FF51FE4
:101560009381802F809589238383C5010E94A504E0
:101570001F5F000F11F4F39401E0F7E0FF1508F08E
:10158000BFCF113408F4ADCFF501C386C11002C03E
:1015900081E08587F5018381882309F4A2CFD501F5
:1015A0001396ED2DFE2D9501255F3F4F8D91819373
:1015B000A217B307D9F781E00F90DF91CF911F9168
:1015C0000F91FF90EF90DF90CF90BF90AF90089574
:1015D0000F931F93CF93DF93CDB7DEB729970FB645
:1015E000F894DEBF0FBECDBFFC012081203161F138
:1015F0008C018091790490917A040E94430588239C
:1016000009F1BE016F5F7F4FC8010E940C0A882359
:10161000C9F068E0CE0101960E947404998589138F
:1016200011C08D818F3361F020F48F3159F489E03E
:101630000CC08F3519F08F3739F004C08BE005C02E
:101640008AE003C080E001C08CE029960FB6F894D0
:10165000DEBF0FBECDBFDF91CF911F910F910895D7
:10166000362F90E0FC01E455FD4F4491FC01EE5A09
:10167000FC4F2491FC01E45FFC4F9491992309F401
:101680006BC0442309F455C050E0FA013197E231B0
:10169000F10508F04EC08827EE58FF4F8F4F0C948D
:1016A0001F12809180008F7707C0809180008F7D0E
:1016B00003C080918000877F809380003AC084B50A
:1016C0008F7702C084B58F7D84BD33C08091B00018
:1016D0008F7703C08091B0008F7D8093B00029C0C8
:1016E000809190008F7707C0809190008F7D03C01C
:1016F00080919000877F809390001BC08091A00014
:101700008F7707C08091A0008F7D03C08091A000DB
:10171000877F8093A0000DC0809120018F7707C044
:10172000809120018F7D03C080912001877F80936D
:101730002001E92FF0E0EE0FFF1FEE56FD4FA591BF
:10174000B4918FB7F894EC91311103C020952E23FA
:1017500001C02E2B2C938FBF0895CF93DF9390E081
:10176000FC01EE5AFC4F2491FC01E45FFC4F849194
:10177000882361F190E0880F991FFC01E858FD4F24
:10178000C591D491FC01EE56FD4FA591B491611124
:1017900009C09FB7F8948881209582238883EC91B3
:1017A0002E230BC0623061F49FB7F8943881822FEA
:1017B000809583238883EC912E2B2C939FBF06C0AA
:1017C0008FB7F894E8812E2B28838FBFDF91CF91BC
:1017D00008958F929F92AF92BF92CF92DF92EF9235
:1017E000FF926B017C010E9499034B015C01C114C3
:1017F000D104E104F104F1F00E949903DC01CB0172
:1018000088199909AA09BB09883E9340A105B10529
:1018100070F321E0C21AD108E108F10888EE880EC1
:1018200083E0981EA11CB11CC114D104E104F10491
:1018300019F7DDCFFF90EF90DF90CF90BF90AF9082
:101840009F908F900895CF92DF92EF92FF920F9327
:101850001F93CF93DF93CDB7DEB7C054D1400FB6FF
:10186000F894DEBF0FBECDBF0E94BE0300916B0493
:1018700010916C0420916D0430916E046B017C0119
:10188000C01AD10AE20AF30A40EDC41647E0D406B2
:10189000E104F10418F480917304BCC060936B04FC
:1018A00070936C0480936D0490936E0410926604A0
:1018B0001092650410926404109263041092620402
:1018C00061E0809167040E94300B6AEF70E080E075
:1018D00090E00E94E90B61E0809167040E94AD0BEB
:1018E00060E0809167040E94300B64E170E080E06A
:1018F00090E00E94E90BF89461E0809167040E94F7
:10190000300B8BE990E00197F1F762E0809167047A
:101910000E94AD0B83E290E00197F1F780E00E9416
:101920009D09672B682B692B21F41092730478941E
:101930003EC081E00E949D09672B682B692BA9F3AB
:101940008E010F5F1F4F6E018FEBC81A8EEFD80A02
:10195000780180E00E949D09F70160837183828392
:10196000938381E00E949D09F701648375838683D8
:101970009783F8E0EF0EF11CEC14FD0451F7789416
:1019800020E030E0F8014081518162817381C480A0
:10199000D580E680F780411551056105710529F074
:1019A000C114D104E104F10421F41092730480E025
:1019B00031C0F90183E0F595E7958A95E1F7EE5995
:1019C000FB4F8081880F4C155D056E057F0508F47F
:1019D000816080832F5F3F4F085F1F4F28323105A2
:1019E00089F62091660430E040916204809163049E
:1019F00090E0840F911D40916404840F911D4091EB
:101A00006504840F911D99272817390771F681E025
:101A100080937304C05CDE4F0FB6F894DEBF0FBE38
:101A2000CDBFDF91CF911F910F91FF90EF90DF908D
:101A3000CF900895CF92DF92EF92FF920F931F9372
:101A4000E82FF92F05C0015011092109310961F171
:101A5000908196239417B9F305C00150110921090B
:101A6000310911F1908196239413F7CFC12CD12C19
:101A7000E12CF12C0AC08FEFC81AD80AE80AF80A3C
:101A80000C151D052E053F0579F0808186238417EE
:101A900091F36C2D7D2D8E2D9F2D1F910F91FF9019
:101AA000EF90DF90CF90089560E070E080E090E0EC
:101AB0001F910F91FF90EF90DF90CF900895CF93FB
:101AC000DF93CDB7DEB728970FB6F894DEBF0FBE11
:101AD000CDBF789484B5826084BD84B5816084BDB7
:101AE00085B5826085BD85B5816085BD80916E00BC
:101AF000816080936E0010928100809181008260ED
:101B00008093810080918100816080938100809129
:101B100080008160809380008091B1008460809318
:101B2000B1008091B00081608093B00080919100FD
:101B300082608093910080919100816080939100F8
:101B4000809190008160809390008091A1008260DC
:101B50008093A1008091A10081608093A100809179
:101B6000A00081608093A000809121018260809319
:101B700021018091210181608093210180912001C8
:101B800081608093200180917A00846080937A0044
:101B900080917A00826080937A0080917A008160DF
:101BA00080937A0080917A00806880937A00109206
:101BB000C10061E08EE20E94AD0B60E08EE20E9407
:101BC000300B60E08FE20E94AD0B61E08DE00E947F
:101BD000AD0B61E08DE00E94AD0B84E580931103B5
:101BE00080932C0280E38093120380932D0282E382
:101BF0008093130380932E02E0917A02F0917B028E
:101C000082E08083E0917602F09177021082E09189
:101C10007802F09179028FEC808310928202E09139
:101C20007E02F0917F0286E08083E0917C02F09159
:101C30007D02808180618083E0917C02F0917D0251
:101C4000808188608083E0917C02F0917D028081B8
:101C500080688083E0917C02F0917D0280818F7D9D
:101C600080838AE692E09093610480936004E0911F
:101C70007904F0917A04138615861486DF011B9689
:101C800033961E92AE17BF07E1F71092780411E069
:101C9000BE016F5F7F4F8091790490917A040E941A
:101CA000580A882309F44AC067E0CE0101960E94D1
:101CB000740498858913ECCF80917404811127C036
:101CC0008091790490917A040E944305BE016F5F70
:101CD0007F4F8091790490917A040E94160540E02C
:101CE00064EB8091790490917A040E94D4048091ED
:101CF000790490917A040E948104082F80917904DC
:101D000090917A040E944305002309F4C2C0009117
:101D10007504CE0101960E94E80A801718F480919C
:101D2000750404C0CE0101960E94E80A80937504F0
:101D3000809178048F5F80937804AACF62E08091CD
:101D400067040E94AD0B80E398EFAFEFBFEF809385
:101D50006B0490936C04A0936D04B0936E0468EED2
:101D600073E080E090E00E94E90BEAE3F3E080E0BA
:101D700090E0208121112AC021E1289F8001299F24
:101D8000100D1124065C1C4F81E0D8018C9380ED6E
:101D900097E0A0E0B0E0F80181839283A383B4834D
:101DA0008FEF9FEF9683858389E795E09287818700
:101DB0000E94BE03D8011B966D937D938D939C93D7
:101DC0001E9750961C921E921F9705C00196719601
:101DD0008A30910571F60E94BE034B015C0182E4DA
:101DE000E82E83E0F82E0AE313E0F80180818823CF
:101DF00009F442C043855485658576852401350103
:101E0000441A550A660A770A4181528163817481B6
:101E1000441655066606770600F1813019F08230C7
:101E200031F011C00184F285E02D19950CC061E0FC
:101E3000F7019081911160E0D7016C93F701319720
:101E400080810E94300BF80183869486A586B68631
:101E5000878590890196908B8787D80115968D91FB
:101E60009C91169797FD08C01F962D913C91509715
:101E7000281739070CF01C920F5E1F4FB1E1EB0ED3
:101E8000F11CE3E0043E1E0709F0AFCF0E94ED0213
:101E9000A2CF109374043BCF10926D0210926C028B
:101EA00088EE93E0A0E0B0E080936E0290936F0222
:101EB000A0937002B093710282E192E090936B0262
:101EC00080936A0285EC90E090937702809376028B
:101ED00084EC90E0909379028093780280EC90E01B
:101EE00090937B0280937A0281EC90E090937D0244
:101EF00080937C0282EC90E090937F0280937E023C
:101F000086EC90E09093810280938002109283028D
:101F100010928402109285021092860260E082E3A1
:101F20000E94AD0BE4E8F3E0E491E0938704EEE374
:101F3000F3E0E491F0E0EE0FFF1FEE50FD4F8591CE
:101F40009491909389048093880410929204109243
:101F5000940410929304E2E9F4E0129284E0EA38E7
:101F6000F807D9F783E693E090938604809385047D
:101F700087E894E090937A0480937904109278042F
:101F80001092740489E08093750481E08093760454
:101F90008093770480E38093670486E180936804EC
:101FA000E2E8F3E0E491E0936904ECE3F3E0E49128
:101FB000E0936A0480E89EE3A0E0B0E080936F04C1
:101FC00090937004A0937104B09372041092EE0386
:101FD0001092ED031092F0031092F1031092EB03B4
:101FE0001092EC031092E90382EF93E09093E503E3
:101FF0008093E4038AE692E0909361048093600406
:10200000EAE3F3E01082719683E0E43EF807D1F74B
:1020100080E18093290381E080932A0381E193E0AA
:1020200090932C0380932B0386E180932D0382E20F
:1020300092E0909328038093270388E0E0E0F2E0A9
:10204000AEE2B3E001900D928A95E1F78EEF9FEF3B
:10205000909337038093360310923803109239031C
:1020600008955058BB27AA270E9449100C94641168
:102070000E94561138F00E945D1120F039F49F3F04
:1020800019F426F40C9453110EF4E095E7FB0C942C
:102090004D11E92F0E94751158F3BA1762077307A3
:1020A0008407950720F079F4A6F50C9497110EF4A7
:1020B000E0950B2EBA2FA02D0B01B90190010C0158
:1020C000CA01A0011124FF27591B99F0593F50F470
:1020D000503E68F11A16F040A22F232F342F4427C8
:1020E000585FF3CF469537952795A795F0405395C0
:1020F000C9F77EF41F16BA0B620B730B840BBAF090
:102100009150A1F0FF0FBB1F661F771F881FC2F7FA
:102110000EC0BA0F621F731F841F48F4879577950E
:102120006795B795F7959E3F08F0B0CF9395880FC8
:1021300008F09927EE0F9795879508950E94B210A1
:102140000C9464110E945D1158F00E94561140F0E9
:1021500029F45F3F29F00C944D1151110C94981102
:102160000C9453110E94751168F39923B1F3552310
:1021700091F3951B550BBB27AA276217730784079A
:1021800038F09F5F5F4F220F331F441FAA1FA9F330
:1021900035D00E2E3AF0E0E832D091505040E6951E
:1021A000001CCAF72BD0FE2F29D0660F771F881F7F
:1021B000BB1F261737074807AB07B0E809F0BB0B72
:1021C000802DBF01FF2793585F4F3AF09E3F510586
:1021D00078F00C944D110C9498115F3FE4F3983E05
:1021E000D4F3869577956795B795F7959F5FC9F76F
:1021F000880F911D9695879597F90895E1E0660FF0
:10220000771F881FBB1F621773078407BA0720F068
:10221000621B730B840BBA0BEE1F88F7E0950895D1
:10222000E89409C097FB3EF4909580957095619570
:102230007F4F8F4F9F4F9923A9F0F92F96E9BB2726
:102240009395F695879577956795B795F111F8CFA2
:10225000FAF4BB0F11F460FF1BC06F5F7F4F8F4F0D
:102260009F4F16C0882311F096E911C0772321F003
:102270009EE8872F762F05C0662371F096E8862F9B
:1022800070E060E02AF09A95660F771F881FDAF7F2
:10229000880F9695879597F9089597F99F6780E835
:1022A00070E060E008959FEF80EC089500240A94A8
:1022B0001616170618060906089500240A94121621
:1022C0001306140605060895092E0394000C11F454
:1022D000882352F0BB0F40F4BF2B11F460FF04C001
:1022E0006F5F7F4F8F4F9F4F089557FD9058440F5A
:1022F000551F59F05F3F71F04795880F97FB991F65
:1023000061F09F3F79F08795089512161306140621
:10231000551FF2CF4695F1DF08C0161617061806AE
:10232000991FF1CF86957105610508940895E89489
:10233000BB2766277727CB0197F908950E94B11133
:102340000C9464110E94561138F00E945D1120F027
:10235000952311F00C944D110C94531111240C94ED
:1023600098110E94751170F3959FC1F3950F50E07D
:10237000551F629FF001729FBB27F00DB11D639F37
:10238000AA27F00DB11DAA1F649F6627B00DA11DDD
:10239000661F829F2227B00DA11D621F739FB00D83
:1023A000A11D621F839FA00D611D221F749F3327F3
:1023B000A00D611D231F849F600D211D822F762F8C
:1023C0006A2F11249F5750409AF0F1F088234AF069
:1023D000EE0FFF1FBB1F661F771F881F91505040D5
:1023E000A9F79E3F510580F00C944D110C94981163
:1023F0005F3FE4F3983ED4F3869577956795B7955C
:10240000F795E7959F5FC1F7FE2B880F911D969575
:10241000879597F9089597FB072E16F4009407D037
:1024200077FD09D00E94271207FC05D03EF4909555
:1024300081959F4F0895709561957F4F0895EE0F98
:10244000FF1F881F8BBF0790F691E02D1994AA1BE0
:10245000BB1B51E107C0AA1FBB1FA617B70710F08F
:10246000A61BB70B881F991F5A95A9F780959095C1
:10247000BC01CD01089581E090E0F8940C944012E5
:04248000F894FFCFFE
:1024840000A21300EBB1D4405E00BC007701000051
:102494000000840200024D022B023F02CB02000026
:0624A40000002A032603DC
:00000001FF
